:020000040800F2
:10000000C82F002015020008050B00084F09000842
:10001000010B0008C5020008AF0F00080000000037
:10002000000000000000000000000000510D00086A
:10003000C703000800000000CD0C0008650E000892
:100040002F0200082F0200082F0200082F020008CC
:100050002F0200082F0200082F0200082F020008BC
:100060002F0200082F0200082F0200082F020008AC
:100070002F0200082F0200082F0200082F0200089C
:100080002F0200082F0200082F0200082F0200088C
:100090002F0200082F0200082F0200082F0200087C
:1000A0002F0200082F0200082F0200082F0200086C
:1000B0002F0200082F0200082F0200082F0200085C
:1000C0002F0200082F0200082F0200082F0200084C
:1000D0002F020008C90E00082F0200082F02000896
:1000E0002F0200082F0200082F0200082F0200082C
:1000F0002F0200082F0200082F0200082F0200081C
:100100002F0200082F0200082F0200082F0200080B
:100110002F0200082F0200082F0200082F020008FB
:100120002F0200082F0200082F0200082F020008EB
:1001300000F002F800F05EF80AA090E8000C82449B
:100140008344AAF10107DA4501D100F053F8AFF278
:10015000090EBAE80F0013F0010F18BFFB1A43F0A5
:1001600001031847381100005811000010F8013B36
:100170000A4413F0030408BF10F8014B1D1108BF17
:1001800010F8015B641E05D010F8016B641E01F8C5
:10019000016BF9D1002D15D010F8014B03F00C03C1
:1001A0000C2BA1EB04040ABF10F8013BA4EB831451
:1001B000A4EB032405F1010314F8016B5B1E01F8A5
:1001C000016BF9D5914238BF10F8013BD1D370478C
:1001D0000023002400250026103A28BF78C1FBD850
:1001E000520728BF30C148BF0B6070471FB51FBD05
:1001F00010B510BD00F033F81146FFF7F7FF00F01F
:1002000091FF00F051F803B4FFF7F2FF03BC00F0D8
:10021000F3FE00000948804709480047FEE7FEE773
:10022000FEE7FEE7FEE7FEE7FEE7FEE7FEE7FEE7A6
:1002300004480549054A064B70470000690E00084E
:1002400031010008C8290020C82F0020C82B002039
:10025000C82B00207047704770477047704775463D
:1002600000F02CF8AE4605006946534620F0070022
:10027000854618B020B5FFF7DBFFBDE820404FF002
:1002800000064FF000074FF000084FF0000B21F080
:100290000701AC46ACE8C009ACE8C009ACE8C0094D
:1002A000ACE8C0098D46704710B50446AFF3008036
:1002B0002046BDE81040FFF7A6BF00000048704789
:1002C0006829002000BFFEE770B504460D460021F6
:1002D000152000F0C7FC04F11C01C8B2012100F098
:1002E000C1FC05F11C01C8B2012100F0BBFC70BDCE
:1002F00070B504460D460021152000F0B3FC04F152
:100300001C01C8B2012100F0ADFC05F11C01C8B20E
:10031000012100F0A7FC70BD2DE9FC4106463546E1
:1003200000244CE005F0C008B8F1000F09D0B8F186
:10033000400F0AD0B8F1800F0BD0B8F1C00F10D128
:100340000BE0002001A908550CE00F2001A9085579
:1003500008E0F02001A9085504E0FF2001A9085594
:1003600000E000BF00BFA806050E05F0C00737B1CA
:10037000402F08D0802F0AD0C02F10D10BE00020D2
:100380000DF804000CE00F200DF8040008E0F02048
:100390000DF8040004E0FF200DF8040000E000BFA9
:1003A00000BFA806050E01A9085D012100F05AFC56
:1003B0001DF80400012100F055FC601CC4B2022CA1
:1003C000B0DBBDE8FC8170472DE9F74F89469246C6
:1003D00000984FEA900BBAF1070F29D2DFE80AF034
:1003E00028040A10161C22000126072708254FF0B2
:1003F00000081DE00126072708254FF0010817E037
:1004000001260B270C254FF0010811E001260F27CC
:1004100010254FF001080BE00326172730254FF079
:10042000010805E003261F2740254FF0010800BF03
:1004300000BF0BEB0602D1B20BF0FF00FFF758FF35
:1004400009EB0702D1B209F0FF0000F069FC0021BE
:100450005C2000F007FCB8F1000F13D1002405E088
:100460000E49085DFFF758FF601CC4B2681EA04229
:10047000F6DC0121002000F0F5FB0121002000F056
:10048000F1FB09E0002405E00449085DFFF744FFA3
:10049000601CC4B2AC42F7DBBDE8FE8F2028002010
:1004A0002DE9F04F87B00746894690461C46002547
:1004B000002600200590049003900290B8F1070FE9
:1004C00037D2DFE808F036040B121B242D00334826
:1004D000059008200490039002902AE0304805908F
:1004E000082004900390029023E02E4805900C20F1
:1004F0000490082003900C2002901AE02A480590EE
:1005000010200490082003901020029011E027484A
:100510000590302004900C2003901820029008E0F1
:100520002348059040200490102003902020029042
:1005300000BF00BF2BE00398C0F58070B84202D224
:10054000029881440027605D202820DB605D7E28C2
:100550001DDC605DA0F12006DDE9041006FB01064C
:10056000C6F3074AC6F3072BF0B206900498114B66
:10057000009059465046069A00F0AAFD4246494668
:100580003846FFF721FF681CC5B203980744605D39
:100590000028D0DC07B0BDE8F08F000080DF1D0030
:1005A00080E21D0000BE1D0080D71D0000FF1D0061
:1005B000505A1E00202800202DE9F05F8146884611
:1005C00092464FEA990BBAF1010F09D0BAF1020F26
:1005D0000AD0BAF1030F0BD0BAF1040F10D10BE01F
:1005E00003240B2518260BE003240F25202607E003
:1005F00005241725482603E007241F25802600BF71
:1006000000BF0BEB0402D1B20BF0FF00FFF770FE4E
:1006100008EB0502D1B208F0FF0000F081FB0021D9
:100620005C2000F01FFB002705E00549C85DFFF7CF
:1006300073FE781CC7B2B742F7DBBDE8F09F00003D
:10064000202800202DE9FF4F83B007461D460024D7
:10065000002600200190804681460598012806D09A
:1006600002280BD0032810D004281CD114E000204D
:1006700001904FF018084FF00C0914E03F4801902A
:100680004FF020084FF010090DE03D4801904FF069
:1006900048084FF0180906E03A4801904FF08008EA
:1006A0004FF0200900BF00BF61E0C9F58070B8427B
:1006B00003D20498484404900027285DA12829DB30
:1006C000285DA92826DC601C285CA12822DB285D87
:1006D000A1385E2100FB01F6601C285CA1380644AD
:1006E000019806FB0806C6F3074AC6F3072BF0B2CB
:1006F0000290254BCDF8008059465046029A00F0F2
:10070000E7FC3846DDE90412FFF756FF4F44A01C12
:10071000C4B22CE0285DB02829DB285DF72826DC50
:10072000601C285CA12822DB285DB0385E2100FB1C
:1007300001F6601C285C00F2AD200644019806FB1F
:100740000806C6F3074AC6F3072BF0B202900E4B19
:10075000CDF8008059465046029A00F0B9FC384660
:10076000DDE90412FFF728FF4F44A01CC4B2285D46
:1007700000289ADC07B0BDE8F08F0000D0C9020065
:100780009081060000DF0E00202800202DE9F041B6
:10079000024600250026002000230024002791F8AF
:1007A00003C00CF00F0591F803C00CF0100CBCF165
:1007B000000F03D091F802C04CEA050591F800C083
:1007C000BCF1000F31D0146800202BE04FF0010C79
:1007D0000CFA00F3B1F800C00CEA03069E4220D1E7
:1007E00083004FF00F0C0CFA03F7BC4305FA03FC2F
:1007F0004CEA040491F803C0BCF1280F06D14FF075
:10080000010C0CFA00FCC2F814C00AE091F803C015
:10081000BCF1480F05D14FF0010C0CFA00FCC2F8F6
:1008200010C0401C0828D1D31460B1F800C0BCF13E
:10083000FF0F34DD546800202EE000F1080C4FF06B
:10084000010808FA0CF3B1F800C00CEA03069E4256
:1008500021D183004FF00F0C0CFA03F7BC4305FACB
:1008600003FC4CEA040491F803C0BCF1280F05D145
:1008700000F1080C08FA0CF8C2F8148091F803C0D3
:10088000BCF1480F07D100F1080C4FF0010808FA3D
:100890000CF8C2F81080401C0828CED35460BDE884
:1008A000F0810000F0B50A46002300240021002555
:1008B00000F00046B6F1004F02D11D4EF16901E093
:1008C0001B4E7168C0F3034583B200F44016B6F5C1
:1008D000401F08D121F07061154E766826F07066D1
:1008E000134F7E6012E000F48016B6F5801F06D12B
:1008F000032606FA05F4A14341F0706106E0460DB7
:10090000360103FA06F6B14341F0706122B1460D9B
:10091000360103FA06F6314300F00046B6F1004F07
:1009200002D1034EF16101E0014E7160F0BD0000A3
:10093000000001400246002093680B400BB10120EB
:1009400000E000207047416170470161704700BFBF
:10095000FEE7000008B50121052000F0B9F90121EA
:100960006548FFF79FFF48F25F00ADF800001020D8
:100970008DF8030003208DF8020069465F48FFF7F9
:1009800005FF48F25F015D48FFF7DFFF2020ADF86B
:10099000000028208DF8030003208DF8020069462E
:1009A0005648FFF7F3FE20215448FFF7CEFF0421FD
:1009B0005248FFF7C8FF642000F044FB04214F4871
:1009C000FFF7C3FF0021FD2000F04CF901211220A8
:1009D00000F048F90021AE2000F044F90021B320D6
:1009E00000F040F90121912000F03CF90021CA20DB
:1009F00000F038F901213F2000F034F90021A22055
:100A000000F030F90121002000F02CF90021A12094
:100A100000F028F90121002000F024F90021A02095
:100A200000F020F90121152000F01CF90021B5206B
:100A300000F018F90121002000F014F90021AB208A
:100A400000F010F90121084600F00CF90021B42053
:100A500000F008F90121A02000F004F90121FD2097
:100A600000F000F90021C12000F0FCF80121FF2076
:100A700000F0F8F80021C72000F0F4F801210F2061
:100A800000F0F0F80021B92000F0ECF80021B120CE
:100A900000F0E8F80121E22000F0E4F80021D12084
:100AA00000F0E0F80121822000F0DCF80121202094
:100AB00000F0D8F80021BB2000F0D4F801211F205D
:100AC00000F0D0F80021B62000F0CCF80121082079
:100AD00000F0C8F80021BE2000F0C4F80121072072
:100AE00000F0C0F80021A62000F0BCF80021AF20E3
:100AF00000F0B8F808BD0000000230000008014016
:100B000000BFFEE770472DE9FF5F05468946904626
:100B1000B9F1000F5BD1002456E040210020FFF71F
:100B2000D3FBE200D21DD1B2E206100E00F0E0F8D5
:100B300000215C2000F096F8002741E015F801AB99
:100B400015F801BB15F8010B039015F8010B029085
:100B5000002631E00120B04000EA0A0018B14FEA57
:100B60000870000E01900120B04000EA0B0018B19F
:100B7000019840EA080001900121019800F072F804
:100B8000002001900120B0400399084018B14FEABD
:100B90000870000E00900120B0400299084018B182
:100BA000009840EA080000900121009800F05AF8EF
:100BB00000200090701CC6B2082ECBDB781CC7B298
:100BC000402FBBDB601CC4B2082CA6DB28E000244D
:100BD00024E0A01CC1B22046FFF776FB3F21002095
:100BE00000F086F800215C2000F03CF8002711E0BE
:100BF000802101FB0451C85D012100F033F8802100
:100C000001FB0451394491F84000012100F02AF819
:100C1000781CC7B2402FEBDB601CC4B2402CD8DB81
:100C2000BDE8FF9F70B506463F210020FFF74CFB53
:100C30003F21002000F05CF800215C2000F012F859
:100C400000250BE0002405E00121304600F00AF801
:100C5000601CC4B2802CF7DB681CC5B2402DF1DBF0
:100C600070BD000070B504460E4626B10821164836
:100C7000FFF76BFE03E008211348FFF764FE102125
:100C80001148FFF760FE002517E001210E48FFF72D
:100C90005AFE04F0800020B102210B48FFF755FEF8
:100CA00003E002210848FFF74EFE01210648FFF746
:100CB0004CFE6006040E681CC5B2082DE5DB102151
:100CC0000148FFF742FE70BD000801407047000078
:100CD00029B1064A92690243044B9A6104E0034A2F
:100CE00092698243014B9A617047000000100240F4
:100CF00070B505460C460021A020FFF7B3FF012187
:100D00001520FFF7AFFF00217520FFF7ABFF012192
:100D10002846FFF7A7FF01212046FFF7A3FF70BD7C
:100D200070B505460C460021A020FFF79BFF01216E
:100D30001420FFF797FF00217520FFF793FF012193
:100D40002846FFF78FFF01212046FFF78BFF70BD7C
:100D5000704710B500F002F810BD00000CB500207F
:100D6000019000903348006840F4803031490860B9
:100D700000BF3048006800F4003000900198401C2B
:100D80000190009818B90198B0F5A06FF1D12948E9
:100D9000006800F4003010B10120009001E0002054
:100DA00000900098012843D12348006840F01000CB
:100DB000214908600846006820F0030008600846E2
:100DC000006840F0020008601A484068194948600D
:100DD0000846406848600846406840F480604860C3
:100DE0000846406820F47C1048600846406840F49B
:100DF000E81048600846006840F08070086000BF56
:100E00000C48006800F000700028F9D009484068DC
:100E100020F00300074948600846406840F002009F
:100E2000486000BF0348406800F00C000828F9D172
:100E30000CBD00000010024000200240042808D130
:100E40004FF0E021096941F004014FF0E022116107
:100E500007E04FF0E021096921F004014FF0E022A2
:100E6000116170477047000010B51348006840F0EA
:100E700001001149086008464068104908400E49C1
:100E80004860084600680E4908400B49086008465B
:100E9000006820F4802008600846406820F4FE00C6
:100EA00048604FF41F008860FFF753FF4FF0006069
:100EB0000449086010BD0000001002400000FFF867
:100EC000FFFFF6FE08ED00E010B540F225511D4889
:100ED00000F03EF810B31B4800F064F8C4B21A48A2
:100EE000008800F40040C8B91748008800F480402A
:100EF00060B10A2C03D000201349088020E012487A
:100F0000008840F400401049088019E00D2C06D1FB
:100F10000D48008840F480400B49088010E00A48E2
:100F20000088C0F30D0009490C5407480088401C94
:100F30000549088008460088C72801DD0020088090
:100F400010BD00000038014008000020A02800204B
:100F500070B50246002400230025002040F66A16E2
:100F6000B14200D100BFC1F3421501F01F030126B9
:100F700006FA03F3012D02D19689334006E0022DD3
:100F800002D1168A334001E0968A33400C120126C2
:100F900006FA04F41688344013B10CB1012000E0C5
:100FA000002070BD01468888C0F30800704700BF6C
:100FB000FEE7000070B50446002517E004F080004D
:100FC00020B102210B48FFF7C0FC03E002210948D1
:100FD000FFF7B9FC6006040E01210648FFF7B3FCD9
:100FE00001210448FFF7B1FC681CC5B2082DE5DB00
:100FF00070BD000000080140014600BF70470000BE
:1010000010B56FF00400FFF719FF0A4800680A499D
:10101000B0FBF1F0094908700846007800EB400188
:10102000C1EBC0104FF6FF7101EAC000044908800F
:1010300010BD00000C00002000127A00000000200B
:10104000020000200146114A12884A434FF0E02373
:101050005A6100229A611A46126942F001021A612D
:1010600000BF4FF0E022106900F001021AB100F455
:101070008032002AF5D04FF0E022126922F00102FE
:101080004FF0E0231A6100229A61704702000020AD
:1010900070B50024002514E001210C48FFF753FC33
:1010A0006006040E20210948FFF744FC10B1601CC3
:1010B000C4B200E0E4B201210448FFF746FC681C1A
:1010C000C5B2082DE8DB204670BD000000080140D5
:1010D0002DE9F04780460D4616461F46DDF8209064
:1010E00040210F48FFF72FFC0320FFF763FF404626
:1010F000FFF760FF2846FFF75DFF3046FFF75AFF16
:10110000002404E0FFF7C4FF3855601CC4B24C450E
:10111000F8DB40210248FFF718FCBDE8F08700002B
:1011200000080140FFF76CFFFFF714FC0020FFF7F9
:1011300079FD4FF400413A48FFF705FC6FE0FF22CC
:1011400000213848FFF7DFFC4FF47A70FFF77AFF91
:101150000020FFF767FDFF2201213348FFF7D3FC92
:101160004FF47A70FFF76EFF0020FFF75BFD2FA3AF
:10117000012200210846FFF793F930A302220A2139
:101180000020FFF78DF931A3032214210020FFF77F
:1011900087F932A3042224210020FFF781F94FF4BC
:1011A0007A70FFF74FFF0020FFF73CFD2FA30522C9
:1011B00000210846FFF774F930A306221E21002003
:1011C000FFF76EF94FF47A70FFF73CFF0020FFF74E
:1011D00029FD2EA3012200210846FFF733FA2BA395
:1011E00002220E210020FFF72DFA28A3032222213C
:1011F0000020FFF727FA4FF47A70FFF723FF002053
:10120000FFF710FD21A3042214210020FFF71AFA92
:101210004FF47A70FFF716FF0020FFF703FD8EE70B
:101220000008014020000020200800205A4A592EC2
:101230004153434949203558370000005A4A592E36
:101240004153434949203758380000005A4A592E23
:101250004153434949203658313200005A4A592EE9
:101260004153434949203858313600005A4A592ED3
:101270004153434949203132583234005A4A592E99
:10128000415343494920313658333200D6D0BEB09D
:10129000D4B0B5E7D7D3BCBCCAF50000BC12000877
:1012A00000000020202800006C010008C82A000867
:1012B00020280020A8070000D0010008A20001603B
:1012C00004A24A040BB00E0102030406070809FF3A
:1012D0000F0703010112E10120040101810763618D
:1012E000211131144115410B6116610FA13ED12628
:1012F000F11A01303F021BE13DC145B1564261CEBA
:1013000022C1CEC221E8E009010103070FFFFF005F
:101310000112FF018008F0FCFFFF9F070111100779
:101320003FFFFFFC00C009113241342116119A61C0
:101330000FA13E9117911F215822F3010230033F64
:10134000600C7F7FFFFFF9F1F1E7E7C787A3000497
:1013500011C1C1C165130000BA13FF032F37FFC0CD
:10136000F31006031FFFFFFECE0004123F0700012B
:1013700005150013030FF17005FEF8E080852207C4
:10138000BFA405FF3F010000000412E0E0E0C191AE
:1013900017354D2101450022F101022CF03F31D5D6
:1013A0001101A004E1E1E37C320701D2036525A32A
:1013B0003005FF3F3E3E13A5930113FE253BE2C0DF
:1013C00001155962C10892C111C107411F72C1259F
:1013D000A13E9117910D011519011F3F011917E148
:1013E0003581B5A198E164A1AF599E000510F8F8C8
:1013F000F838011116A92CE004C0E0F8014AE065B4
:1014000030040078780F6005787808F84B3111497E
:101410009342E0393BE0000A413B55B0311E510197
:101420006154510722E09962F00192F837913B51E3
:101430002BD159A9E2193A02101C011116AD000373
:1014400049AEA2FE0171165D3C0520043F3F7F01BD
:101450004279EA11EC22790F20043F3F3FA72FEF9A
:10146000EF1E0310060FEFEFE0EF0122EE0121095E
:1014700032EFC43C0400C3C33D032004E310F90170
:10148000310C32FF0B4DA20330040303FB01411961
:1014900042FF0D111621BE62F90192FF37113BB2D6
:1014A0000159233FBC011C04BFBFBF8E0413FCFCC9
:1014B0000DCD91045D7D04710191DBB500A23F016A
:1014C000E5004004C0C0DF01518A410E19586DDCAF
:1014D000041D25041005FFFF81BD014121210A36AD
:1014E00081E23FCFCF3D04240603C0C1C3C72922F8
:1014F000FE404C04CFC7C1A20433C0C010627FA419
:1015000033003F6041593407C0C1C2C6C6CE9243C2
:10151000FCFC385005CFC7C3C13B43878759100532
:1015200000073777014E67A5041D1704F500A21FB9
:1015300001B500000A10F0E0C0C0808F8F8F8E01CF
:10154000111672800102168701211D138F87420038
:1015500005128F80878F1D613B61430004128381D8
:10156000831E218531468112A176700483818138E2
:1015700061597132B12BB280010118B800061FC049
:10158000C0E0F0FF01F3FDFD113D2103F11801134F
:101590003EA008F570303050B1FB13239C100100C1
:1015A00004212000797C3B9000E99B10EBBF0009EF
:1015B0001CFE479FAFAFAF5A7E791FD7F4C3079089
:1015C0000B840134342426371300AA9323DE668665
:1015D000031C98CC4090107C0010F7FC2245454538
:1015E0005666654301BDD323EF6740031C8ACE8056
:1015F0006010CC1113005157666666676655236606
:10160000FE17100EA1B0B0A050B0C0B0C06090C026
:10161000B0010216A0406010CA114534116577660A
:10162000777665512010CD9710072A080C0A050C13
:101630000100091606090C0C0B0B0B1D40AC0F86A4
:1016400012565622448877766320020145FF032F05
:10165000FE869E03071CA8EC00A40F78236767345E
:10166000348877641113452267D336DD40061D8820
:10167000409410AC347788564577764324555537D7
:10168000CDFE401004EE75FD01040418A7EAFEF833
:101690009013FBF8FEFF69778877566655345667D6
:1016A000745040AB9A5E74CD0A06189A7DB012BF92
:1016B0000230D2DB7988776665554686510203355C
:1016C0001D34084FAFBFCFBFAFAF0C0214FCBED06C
:1016D000119B010120A59A88665556653113454432
:1016E00054AC53DC518C0B147257F7D812DD2233F3
:1016F0001310859A655576431245665547EF1D557B
:1017000091000414E603EF401808DB21444513322E
:10171000973C58092245676867A490BB17041114C9
:10172000C890A0A0A090AA55E3F3F2F2FBF7009FA7
:101730003F6413D6522355564523546666442366A8
:1017400078985100271A0C1012BD0608080729DFE7
:10175000670605090743003CC4037016FED43347EF
:1017600044225567564444556644446797411312D2
:1017700087BA00111087A9A9A8BBFF7776A9FFB97E
:101780009F3EFF53D53F100C820367884422457764
:10179000785655FB780745886412453441F412CCDD
:1017A0007799998950F7896799FF85F5F6F5620071
:1017B0007B100B9413567677563355778941A00AE0
:1017C00065555676323466447840EC0ECB0500768B
:1017D0008899FF25060706061C38031C0DC92256EA
:1017E0006767777755667999887B03800B667754AE
:1017F00023667746ACFBFC40040A1298AABF7877B0
:101800009AFF8BFCFD100F873578767742202020D9
:1018100071B89B78674015025C0579987011F706DE
:10182000001010DB84A6A5A5B6FE757291F2A07912
:1018300033FAFE200F6567886666570400120210AF
:1018400082BA89405C075578974102545704F010DA
:10185000790002020105EF4604050A09CF591082FA
:101860001004DF5577405C14667835113424124239
:10187000A77966774566985412454302053809EF03
:101880009FEFEFDFFF904151BC05EF0520E57503A9
:10189000AC1DA4C0C3648789666676643322335660
:1018A0004534448666765667873334564585DD036E
:1018B0005308036EB30C2D4018089F020012428695
:1018C00077371804453333022E56C0043C09776637
:1018D0002355776755DCB70823F7F50133F7C707BA
:1018E000CC05F5F6F6F43604101457113434557659
:1018F00077664557453355878967776766D04C06C5
:101900003356787866C30410045901060123020394
:1019100006C4060606000208FD14088922686866E7
:101920006776C21008684554779899788C3C0A9974
:1019300077446688899AB383B7053D7D043B657516
:10194000A9DC04A005BCF9031807BC34889A79887F
:1019500000180589874344251004998878873C0737
:10196000456588AA85007403EC118866FF62CAFF8A
:101970005697FDFAF6C0003EEF98F704401E5965F1
:10198000A9AB9A896688985545567595B6B99B8ACC
:101990006765A9685588A9432454ED401C0545CCCA
:1019A000FF889406EC07050BAFFFCB88F006140800
:1019B000EF5C77BABCBC798514105530100000205C
:1019C0005093995775885698768F42CA8048065525
:1019D000CCFF656B4FF1401818FDE3C26383B6EA94
:1019E000BD688777674924333424130352865665CC
:1019F0001470053466569840100478306001E00495
:101A000070FADF401C1FEF5F05112525539598776D
:101A10008878987934446657454555665575886782
:101A200044667876CA07100A8879C710EFFF8639AE
:101A30006F01F0040676FFC01C0FFFDF2765897970
:101A4000677788879989A96786031F7967C3061214
:101A500045C31C05658868B8F7051C0886AF08FFF4
:101A6000FB10AB540E000411FB8267401C19FFCF22
:101A70005798AB9B89998987A9999A45426687AA05
:101A80008A7877674564CA0624069967DBFF89C0B0
:101A90000C0C11DF06BAFFCD370500ABFF99BD0571
:101AA0001021AD66A9CABC9BAA9A78A8AA7A254338
:101AB0007698A99A89887845647678889998FF7588
:101AC0001050010C0C11403050607060003040200C
:101AD00060FE056021AF7A7470C7CACABB8998BA24
:101AE0008C37558799B8B8A8A88A47548698998999
:101AF000D98D2D8F7F01210A0D1241050C1E1DFE6F
:101B0000FF8E022344546575769694856452412174
:101B1000212131628577456497AA78DBF1081C188A
:101B2000FEF8B2716384A6343266686878785735F7
:101B30004535243445454648080C081B66775654FD
:101B400086AAAA35071C068550401214B40418153D
:101B5000886925427597999A9A57557777575465AA
:101B600066777868D50C051B574585A9F508240FBD
:101B7000CF0310334455768788A99A3834643B0CD8
:101B8000131B566487885833536576989A8A7888E9
:101B9000684575FCB608180EBF08003142536476DC
:101BA0008798A989570600141A989A5866769869F2
:101BB0001441647688A9AB8A99794673411C0FFD5C
:101BC000F4A44737363655657676656576C8040CD5
:101BD0001518758697887878989A4925437487A947
:101BE000BAAAAA893584380A1C09E52005577787DF
:101BF000866534093254F51013897A7A69677686D6
:101C00008889A9984646557597A8A9410E1685F664
:101C1000072004B30024791C1656667764323446D4
:101C20006667788BA9A694847677786776974A0456
:101C300015440C0814668698AA7833C874071C05E6
:101C4000DA001146ED041C0F656678752124556590
:101C50007789A9A44123FF09180A7788998A688699
:101C6000988988D50C0813676697995753EB320902
:101C70001C0475001037031013665668993201432F
:101C8000446575965101345678899A011C04AAABB3
:101C90008ACD041E89FB0600071367658778458691
:101CA000401C0545000051F2071C0B789886111066
:101CB0001023256C658C05300C648799AAABBABAE1
:101CC000BABBBC9B41129A823F88668A04FDB20A65
:101CD00014217900110043787684568D12078FCF36
:101CE000EFFF5C5FBF9F5C587A9683635364749583
:101CF000C9AB87040A1299BBAB8866777744CB7E61
:101D00006C0FDF14221233686E8FDFFFBFFEF6F513
:101D1000710E1C05AA03135482081C0B5666989971
:101D200088AAABBBBB99D2050B1444993D1C0B2967
:101D30002577C6D2E2F7F8B020B70B1F40E3390C85
:101D4000140BFEFCFDFFBF6D67989A7946000B14DB
:101D50008899BBBBBBAA77657745401DFC071E1061
:101D60001F072D6D0F1017233434130020605020EF
:101D7000001070F8FFBD7899AA89889A99400408E4
:101D800014CCAB7755775588C21C0DD9000223338C
:101D9000332200001244453E0B2DE5140C1A122389
:101DA000130110FEEF88AAAA9A99AA9A89BBCCCCF3
:101DB000BB7756775589DCFC7E0A300461003339E5
:101DC000201B012356665643110002244544442338
:101DD00000A5FF9CA9BBAAAABBA999BC40BC0A67E5
:101DE0007756ABDDAB8570E6AB0C1005FCF8F690D2
:101DF00078180855565645221134484C2133111293
:101E00003456565544320000C2FBBDBBBBBCBB9927
:101E1000ABCCCCCCAA77776567CDDDB953AA136D6F
:101E2000B2091E902D0610100000214466676766F7
:101E3000342245787755223F300566665543196C44
:101E40001691DDCDCBA99ACCDCCCCC997776569B7C
:101E5000DDCB85100112140A1004FFFFE90E1223D6
:101E6000EB1E11E6051C0B88774533668978442301
:101E7000350707101065432100011213020095ED8C
:101E8000A99ABCDDBF1DD40A8C098ADEDC97321208
:101E900035453D07100542002234FA301E35233304
:101EA00065889989664578AA874445688888664325
:101EB000111224344434330033BB3F7C0EDCA7655D
:101EC000567BDEEDB85424466755420D180EEC00E3
:101ED0000134445567676757354487EC240E689C86
:101EE000BD7856799A997643222446041006330029
:101EF00035BCBDBD7C10C88555579CDEEBB764462C
:101F000068888967B7950A2C04001043F6041C13EF
:101F10008989795778BBDBBAAAB8B797BACDAB86AF
:101F200044368404277766441C1067EFDBCAB78504
:101F3000555669ACDBC884456856035C05999967BA
:101F4000A5800916EE3A1E4325073C3399AAACBD7D
:101F5000A88688988452323243A5B969698A8988EB
:101F60008877655432100040C8976555576A9BBA08
:101F7000A6734346789AABAAA99887864330560938
:101F80002EFAE6141F214230051408ABEEB7547741
:101F90007441BA240E44445486DCCEABA9887664DE
:101FA000422183100930847C8ECDCA9563D2198E6C
:101FB000113F1C067663311000C0061FFE80D30956
:101FC000101F13132323344465A9EC682241220116
:101FD0001134413347686998ECCB9764432212135C
:101FE000011C08020100C7FEA8669309100554648D
:101FF000758601180B654423131304BEFFFF95ED8E
:10200000101C44455656576768698A859667233180
:10201000221244011063859496A8985746011953DB
:102020001C194534220057ED997552312020213377
:102030004456676868685767558B37041A43B51E5E
:1020400055ED041C1988999ABDBB433242311123C6
:10205000332133010021102064BCAC99897E071D17
:10206000080B2C17441100ADCD8A573513131435C6
:1020700057799AABABAB9A99875594092234401F94
:102080006576EC051C19A9DBBB3311011211323343
:102090002221001212010245CAB998888777C90522
:1020A0003C1755441200C9DD986542312031527405
:1020B00096A8B9BABAA99878140A1C346A003143B0
:1020C00043545464657575869857253744222221F8
:1020D00033001256363534698A6564636464545437
:1020E000544443220075ED9967351403021323A36A
:1020F000062C08767575747554A7D30E10041C024F
:1021000010D51C1C31323345679AAD9B75211111D6
:102110000132132264879A9DCEBB794735232280F2
:1021200007100C202000009DEF8B67544343FD3CBB
:102130000B787979685744322130208F071FDF3BB5
:10214000EA0327123498180FEDCD353445251311C5
:102150003132224387DB4A2C0689775635134410E7
:102160002C0C0458A6C7DABC7B3723325454054CD8
:1021700008AA89684624020080081EED71041B44E9
:1021800056401813A9B9D99A49577779593736481B
:102190007D9B868597984015B53C11010015AD7A59
:1021A00057556596B8BB8B49355486CA064C057998
:1021B000684405D9122805CB001134C0141588983D
:1021C000866587CBCDAB99BCBC99C9DBBB78455341
:1021D00074763E1E5544041C1276FDCDBC8C6956A7
:1021E0006586C9CD9D59457598A9870C5F766C5554
:1021F0000C2FCE00B7072C1A66767664434588AA62
:10220000BA9776B9CA776486A99967342242546529
:10221000554003100843CBCBCDCCCCAC421C05B70A
:10222000EDCE8B4A087C058787658BC0031B250094
:10223000151C0754544221336625091C0865548730
:10224000A978445307081405673512219E1C0843DA
:10225000330034ABA9CAC0038C0DCC8B575596EC18
:10226000DE9B46326476C0031C0AFFBF04002032A6
:1022700031201040041C0D878877543365988845B9
:102280002242657C031C0635120010200103300435
:102290007ADE9B419C0DBC886755A7ECCD8A242132
:1022A000424346063FEF2C591A132244C51C0565CC
:1022B000332254810D1C0522114365C004153C1DB9
:1022C000851820073BDDDBCCAA99C31F9977510BFA
:1022D000CC08DDBC68120020BB380A1FAF2C0005FB
:1022E0001005556565543A1F667640052221FD1597
:1022F0003C1C07015FEFDABBBA7B064EAA4005EC37
:102300000A6676CCDDAB450002DF42071C0E2700D3
:10231000324444443310003255666500061C0510F3
:102320003243443C0414057BFFA9AAB11EBB3A0EFC
:102330002DC0050C0910667765BADCAA590BFB099C
:1023400012AE322C0433332188053F545479051CD6
:10235000082031300003FFFE40061D360E3F9998DD
:1023600040060C071365775598CEDFFD093C0578CC
:10237000030010B0051575141220000509080604A5
:10238000040ABFFFDA7799AA9888F30C0518BBBB3B
:10239000CBBAC006180CF96242759C6F5FBFCF2F95
:1023A00005D14F087F6E133C0DFBF8A46689A897F2
:1023B000778799889A40071DD30E0D1380075C0F0D
:1023C000EB3122203367B5E6FBFFF8FFAF9FA7157F
:1023D0001C0CFDAB12214475857565668AC0072506
:1023E000451E66C0070D133B111C218600100035E9
:1023F00087775856C71140F5F9FBFF95D2F8E69458
:1024000065878A49373747486AACB911091C04996E
:10241000BAA940080C04127644BC00091C065400FA
:10242000002689E70B1F88783B041C041333A5C0E2
:10243000081F2456960415BA11F81C04B8778901B0
:1024400008040813A99875668865553E1C1A58003B
:1024500011768878666576993410344565677926F3
:1024600000426586979898F6091C06BA977789986E
:10247000CF0D0C07149876567887433A141C05BE86
:102480000010547B0E2C0F66568667133254667606
:1024900097AA6B162358060C131478989776789998
:1024A0008788989997656789986446CFF3121C08C6
:1024B0005D0041567767566E0B0C20165724335437
:1024C000657687A8AA7B5A58677786776889987750
:1024D00077868676677989AA8634ADF4121C058FD3
:1024E000054074B7101E57FB0A1F5555390A3C07A3
:1024F0008797979686779B051C079864545567794C
:102500000A0A0C041997436A36131C078F6B726210
:102510005253CF0521011D7C0F1C0567698987CDAA
:102520000E2C04A87232B6050C0819AAAAAA975351
:1025300059EF31151C09F860011324355668770AE4
:102540001F9675D4050C151999A87456789985228B
:1025500024566789AAB99898976448DF70151C04B7
:10256000F91001400C2DF70B1FA862BC0A14058A54
:102570009AA964701C04743445D50A00081AA997F6
:1025800087877654587E1C07FF5A090812406D0C45
:102590001C068795422567EF0A1C07A975557776B3
:1025A00064440B16763D0C071E7777644569AA31A3
:1025B000161C09BF4E29284B7C322349041C0C767B
:1025C0008675435443414253535362061256490C95
:1025D000042279A9AB75160C1D21FED610233647AF
:1025E000485868796A7856362604040415376876A0
:1025F000545789A988BDB4161C12E99848299DBC76
:10260000BBBA989ABAB7634588A9AA6D081C05A7F2
:102610006445683A1202218B3F1819C9579ABBCA00
:10262000A9AAA8789AAA96423567899AA99888860D
:10263000544677810F208AEF32171015EA7589BA50
:10264000A88898977899999954346688A997777744
:10265000BC1D77040C04209877BE33171C07FB5170
:1026600056978675FF0F1DAF0B1D75100C0F207749
:102670009776656676446888655688769BED171C64
:1026800009E220114233366B9901101808899743EB
:10269000456564548E1C05556798761A06022078A5
:1026A000BE1C0FDF5F6E46498CCDDA778977768264
:1026B000318D081C0630212668654F1004062166FE
:1026C00043666589BB1015FC9578BBBBCA877898B3
:1026D00065560402010204175AA864BD0407218943
:1026E00078336554BCFA1F85579C091E9730121029
:1026F0000956536466798AAAB8490409219A76551D
:10270000889A3442457D1805CA4388A9E71C087792
:1027100077887935446771101E88AD0504092198C2
:10272000546688AA590053FC1C1298227675657667
:102730006766767786534577999887C012000A2195
:10274000987643668888A86C3B40100D641043431C
:102750005567766654654323792D3E082D40131E38
:1027600066EE079D7A10EC0AF9C0805040406090F8
:10277000F33F142C07F61000122579C0131C0544F2
:10278000323356840F1D82077C0966776632547691
:1027900076554318DC0EFF9000070B1D2E2E1D0AE8
:1027A0000500F602051C064F6E56889840147014FA
:1027B000473421345553424579666765767833430B
:1027C000655369E47F95074005DC048F02E9001337
:1027D0003EEDC0141C0B67865212333121269A86B7
:1027E0002D0E8C076599462143342F199E66800F64
:1027F000FE52CB051E56E00E1C0B677430002010F5
:10280000034ABA9780151E43C1139C04251054A592
:10281000141C0500C0F7FB4318FC06FCFAF69005F3
:1028200040172C0F784387677735040304389AB92B
:102830008776C0151E43CE109F19046D0D1C04AF82
:102840000A01D5081D520A0F11030C7E12172264CB
:10285000331C0486646570071F766507108C084575
:1028600022657754C9EF6D08FC0FC9F6FEFFCF8EC5
:102870007D7D9ECFFFFEB2A846061B5B21F01E5455
:10288000C01612983FAC0A665565682343654477C5
:10289000A4141D24081C061020303020081B0E1123
:1028A000004A071C044A20654017AC0F557787552E
:1028B0005455665444885611544381195C049A3B1C
:1028C0009F2A1C0004108F8F26801D4A1D1C052680
:1028D00074432202093DC017AC08437689252020A5
:1028E00078C01A9DE6190E13768A081C06EF8F37FA
:1028F0002254760D0C0C154567664532668799267D
:102900000060AD190E1551D4031C0DCD12444421A5
:1029100024896665562253EC0B0F137A2DBC030CE9
:102920000415F68000D403AC11DC2232200269A920
:10293000565566342154665564401A5004B9C4FA99
:10294000010C0415898B5410131EB7A0151E7AAC08
:1029500008BC0855656614215443FB03AEBB1E201A
:102960000D130A111C08FFFA00076FDD96401AA02C
:10297000095655647726112041801009A96BCFCFE5
:10298000CFBF6ABF060C0414CF37988813191B1DDC
:1029900084051D8618AC0856436576572708B70688
:1029A0002EA98D1C3FFD93571D0E1566CA1011E60A
:1029B0001C0543778765480BAC073431545562EAF0
:1029C0009C1A16998D2C057511030104170E1730EA
:1029D00054051C067632667643C01BBC075612208F
:1029E000432176A1151C040610D8B0201DB3200C7D
:1029F0000417F560045206BC0E7821655521448801
:102A0000766646031010FB044C05D9F9DFDF24215C
:102A10000C05168FAFA6B8831B1C07BC12544211BD
:102A2000560F0AAC0677662502036D1D1BAC00FC31
:102A300031010C0517403000AC401D2C071020025E
:102A40001774664714AC045522745A1C7FA92AC215
:102A5000150404167F15A8402C08B60005AFEF2317
:102A60005348149C05563400CAA6098B8AA4C00E8C
:102A70001750D1072F9F8FD008BC08004242415108
:102A80006220401E4C04EF00A078100C051DFEF9DA
:102A90008004D0053F2C00D811BE04720A0C0D1E14
:102AA000AF06003060707060300007DF5106EC0741
:102AB0008F0B0706083EEA0C1F8F3EFC1D000540E9
:082AC0000C4FAFFF0100000004
:0400000508000131BD
:00000001FF
