:030000000253FDAB
:0C53FD00787FE4F6D8FD75810702497A3C
:100003005A4A592E415343494920355837005A4AD1
:10001300592E415343494920375838005A4A592EDB
:1000230041534349492036583132005A4A592E41E7
:10003300534349492038583136005A4A592E4153BF
:10004300434949203132583234005A4A592E4153D8
:1000530043494920313658333200D6D0BEB0D4B0EC
:10006300B5E7D7D3BCBCCAF500FF0F0703010101F5
:100073000101010101010101010101E1E1E1E101ED
:100083000181E1E1E1E1612101010101E1E1E1E15D
:10009300E1E1E101010181E1E1E1E1E1E1E101010D
:1000A3000101E1E1E1E1E1E1E1E1E1E1E10101019D
:1000B300010101010101010101E1E1E1E1E1E1E10D
:1000C300E1E1E1E101010101E1E1E1E1010101011D
:1000D300010101E1E1E1E1E1E1E1E1E1E10101014D
:1000E30001E1E1E1E1E1E1E1E1E1E1E1010101015D
:1000F3000101010101010101E1E1E1E1E1E1E1E1ED
:10010300E1E1E101010101E1E1E1E101010101E1DC
:10011300E1E1E1E1E1E1E1E1E1E101010101E1E14C
:10012300E1E1E1E1E1E1E1E1E101010101E1E1E13C
:10013300E101010101010101010101E1E1E1E1E16C
:10014300E1E101010101010161E1E1E1E10101C13C
:10015300E1E1E1E1210101010101010101010101EC
:10016300010101010103070FFFFF00000000000070
:100173000000000000000000000000FFFFFFFFF090
:10018300FCFFFF9F0701000000000000FFFFFFFFCF
:100193003FFFFFFC00C0FFFFFF0FFFFFFFFF00005B
:1001A3000000FFFFFFFF010101FFFFFFFF00000051
:1001B300000000000000000000FFFFFFFF0101013D
:1001C300FFFFFFFF00000000FFFFFFFF0000000034
:1001D300000000FFFFFFFFF3F3F3F3F3030000005E
:1001E30000FFFFFFFF010101FFFFFFFF0000000011
:1001F3000000000000000000FFFFFFFF010101FFFE
:10020300FFFFFF00000000FFFFFFFF000000007F73
:100213007FFFFFF9F1F1E7E7C78700000000FFFF69
:10022300FFFFC1C1C1FFFFFFFF00000000FFFFFF91
:10023300FF000000000000000000FCFFFFFF037F41
:10024300FFFFFFC00000000000031FFFFFFEFCFFD5
:10025300FF3F070000000000000000000000000056
:100263000000000000000000FFFF0000000000008D
:100273000000000000000000000000FFFFFFFF037C
:100283000F3FFFFFFEF8E08000000000FFFFFFFFCD
:100293000007FFFFFFFFFF3F0100FFFFFFFF00001D
:1002A3000000FFFFFFFFE0E0E0FFFFFFFF000000B3
:1002B300000000000000000000FFFFFFFFE0E0E09F
:1002C300FFFFFFFF00000000FFFFFFFFF0F0F0F073
:1002D300F00000FFFFFFFFF1F1F1F1F1F00000008A
:1002E30000FFFFFFFFE0E0E0FFFFFFFF0000000073
:1002F3000000000000000000FFFFFFFFE0E0E0FF60
:10030300FFFFFF00000000FFFFFFFF00000000FCF5
:10031300FCFCFCE1E1E3FFFFFFFF00000000FFFF47
:10032300FFFF0707070707070300000000FFFFFFA2
:10033300FFF0F0F0F0F00000C0FFFFFFFF3F3E3E94
:10034300FFFFFFFFF000000000000000FFFFFFFFC2
:100353000100000000000000000000000000000099
:100363000000000000000000FFFFC0C0C0C0C0C00C
:10037300C0C0C0C0C0C0C0C0C0C0C0C1C1C1C1C076
:10038300C0C0C0C1C1C1C1C1C0C0C0C0C1C1C1C161
:10039300C0C0C0C1C1C1C1C0C0C0C1C1C1C1C0C052
:1003A300C0C0C1C1C1C1C1C1C1C1C1C1C1C0C0C03F
:1003B300C0C0C0C0C0C0C0C0C0C1C1C1C1C1C1C133
:1003C300C1C1C1C1C0C0C0C0C1C1C1C1C1C1C1C11E
:1003D300C1C0C0C1C1C1C1C1C1C1C1C1C1C0C0C00F
:1003E300C0C1C1C1C1C1C1C1C1C1C1C1C0C0C0C0FF
:1003F300C0C0C0C0C0C0C0C0C1C1C1C1C1C1C1C1F2
:10040300C1C1C1C0C0C0C0C1C1C1C1C0C0C0C0C1E1
:10041300C1C1C1C1C1C1C1C1C1C1C0C0C0C0C1C1CD
:10042300C1C1C0C0C0C0C0C0C0C0C0C0C0C1C1C1C4
:10043300C1C1C1C1C1C1C0C0C1C1C1C1C1C0C0C0AE
:10044300C1C1C1C1C1C0C0C0C0C0C0C0C1C1C1C1A0
:10045300C0C0C0C0C0C0C0C0C0C0C0C0C0C0C0C099
:10046300C0C0C0C0C0C0C0C0FFFF0000000000F893
:10047300F8F8383838383838383838383838383879
:100483003838383838F8F8F8000000000000000069
:1004930000000000C0E0F8F8F8F8F8F8F8F8F8F809
:1004A300F8F8F8F8F8F8F8E0C00000000000007869
:1004B30078F8F8F8F8F8787808F8F8F8F838383869
:1004C3003838F8F8F8F8F8000000000000E0E0F829
:1004D300F8F8F8F8E000F0F0F0F0F0F8F8F8F8F8D1
:1004E300F8F0F0F0F0F00000000000E0E0E0E0E001
:1004F300E0E0E0E0F8F8F8F8F8F8F8E0F8F8F8F8F1
:10050300F8F8E0E000000000F0F0F0F0F0F0F0F0B8
:10051300F0F8F8F8F8F8F8F8F0F0F0F0F0F0F0F0A0
:10052300F00000000000E0E0F8F8F8F8F8E0E0F090
:10053300F0F0F0F0F8F8F8F8F8F8F0F0F0F0000068
:1005430000000000000000000000FCFCFC1C1C1C60
:100553001C1C1C1C1C1C1C1C1C1C1C1C1C1C1C1CD8
:10056300FCFCFC0000000000FFFF0000000000FF97
:10057300FFFF000000FEFEFEFEFEFEFEFEFEFEFE90
:10058300FEFE000000FFFFFF00000000000000006F
:1005930000003F3F7F7F7F7F7F7978F8F8F8F8F896
:1005A300F8F878797F7F7F7F3F3F3F00000000EFBF
:1005B300EFFFFFFFFF0FEFEFE0EFEFEFEFEEEEEEFA
:1005C300EEEEEFEFEFEFEFE00000000000C3C3FF3C
:1005D300FFFFFFFFE310F9F9F9F9F9FFFFFFFFFF51
:1005E300FFF9F9F9F9F90000000000030303FBFB2D
:1005F300FBFBFBFBFFFFFFFFFFFFFFFBFBFBFBFB2C
:10060300FB03030300000000F9F9F9F9F9F9F9F91B
:10061300F9FFFFFFFFFFFFFFF9F9F9F9F9F9F9F91D
:10062300010000000000C3C3FFFFFFFFFFE33FBC67
:10063300BCBCBCBCBFBFBFFFFFFFFCFCBCBCBC0061
:1006430000000000000000000000FFFFFF000000AA
:10065300FFFFFFFFFFFFFFFFFFFFFFFFFF000000A4
:10066300FFFFFF0000000000FFFF0000000000FF8D
:10067300FFFF0000003F3F3F3F3F3F3F3F3F3F3FC4
:100683003F3F000000FFFFFF0000000000000000EC
:100693000000C0C0DFDFDFDFDFDFDFFFFFFFFFFFC3
:1006A300FFFFDFDFDFDFDFDFC0C0C000000000FFD0
:1006B300FFFFFFFFFF00FFFF81BDBDBDBDFFFFFFCC
:1006C300FFFFFFBDBDBDBD810000000000CFCFFF18
:1006D300FFFFFFFF03C0C1C3C7EFFFFFFFFEFFFF25
:1006E300FFFFCFC7C1C00000000000C0C0FEFFFF76
:1006F300FFFF7F00FFFFFFFFFFFFFF003FFFFFFF45
:10070300FFFFC0C000000000C0C1C2C6C6CEFEFECF
:10071300FEFEFEFCFCFEFFFFFFFFCFCFC7C3C1C140
:10072300C000000000008787FFFFFFFFFF030007F3
:1007330037777777776707FFFFFFFFFF0707070025
:1007430000000000000000000000FFFFFF000000A9
:100753001F1F1F1F1F1F1F1F1F1F1F1F1F00000003
:10076300FFFFFF0000000000FFFFF0E0C0C0808F2C
:100773008F8F8E8E8E8E8E8E8E8E8E8E8E8E8E8E94
:100783008E8E8E8E8E8F8F8F8080808080808080F3
:1007930080808787878787878787878787878787F4
:1007A3008787878787878787878787808080808FEA
:1007B300878F8F8F8F80878F8787878787878787A5
:1007C30087878787878787878080808080878787D9
:1007D30087878787808787878787878783818387BB
:1007E30087878787878780808080808787878787B9
:1007F300878780808F8F8F8F8F8F8F80808787876A
:100803008787878780808080878787878787878791
:10081300878783818181838787878787878787877F
:100823008780808080808F8F8F8F8F8F8F80808055
:100833008080808787878787878787878080808076
:10084300808080808080808080808787878787877B
:100853008787878787878787878787878787878725
:1008630087878780C0C0E0F0FFFFFFFFFFFFFFFF28
:10087300FFFFFFFFFFFFFFFFFFFFFFFFFFFFFFFF85
:10088300FFFFFFFFFFFFFFFFFFFFFDFDFFFFFFFF79
:10089300FFFFFFFFFFFFFFFFFFFFFFFDFDFEFEFE6C
:1008A300FEFEFDFDFFFFFFFFFFFFFFFFFFFFFFFF5B
:1008B300FFFFFFFFFFFFFFFFFFFFFFFFFFFFFFFF45
:1008C300FFFFFFFFFFFFFFFFF570303050B1FBFF6D
:1008D300FFFFFFFFFFFFFFFFFFFFFF9C1010101044
:1008E30010200079FFFFFFFFFFFFFFFFFFFFFFFF68
:1008F300FFFFFFFFFFFFFFFFFFFFFFFFFFFFFFFF05
:10090300FFFFFFFFFFFFFD9000010000000010EB61
:10091300FFFFFFFFFFFFFFFFFFFFFFFE479FAFAF9D
:10092300AF5A7EFFFFFFFFFFFFFFFFFFFFFFFFFF4A
:10093300FFFFFFFFFFFFFFFFFFFFFFFFFFFFFFFFC4
:10094300FFD7F4FCFFFF840134342426371300AAB5
:10095300FFFFFFFFFFFFFFFFFFFFFFDE66FFFFFF5E
:10096300FF98CCFFFFFFFFFFFFFFFFFFFFFFFFFF2E
:10097300FFFFFFFFFFFFFFFFFFFFFFFFFFFFFFFF84
:10098300FF7C0010F7FC224545455666654301BDD3
:10099300FFFFFFFFFFFFFFFFFFFFFFEF67FFFFFF0C
:1009A300FF8ACEFFFFFFFFFFFFFFFFFFFFFFFFFFFA
:1009B300FFFFFFFFFFFFFFFFFFFFFFFFFFFFFFFF44
:1009C300FFCC11130051576666666766552366FEB2
:1009D300FFFFFFFFFFFFFFFFA1B0B0A050B0C0B00B
:1009E300C06090C0B0B0B0B0A0FFFFFFFFFFFFFF3B
:1009F300FFFFFFFFFFFFFFFFFFFFFFFFFFFFFFFF04
:100A0300FFCA11453411657766777665512010CD9D
:100A1300FFFFFFFFFFFFFFFF2A080C0A050C0C0C6A
:100A23000C06090C0C0B0B0B1DFFFFFFFFFFFFFF59
:100A3300FFFFFFFFFFFFFFFFFFFFFFFFFFFFFFFFC3
:100A4300FF8612565622448877766320020145FFBB
:100A5300FFFFFFFFFFFFFFFFFFFFFFFE86FFFFFF1D
:100A6300FFA8ECFFFFFFFFFFFFFFFFFFFFFFFFFFFD
:100A7300FFFFFFFFFFFFFFFFFFFFFFFFFFFFFFFF83
:100A8300FF7823676734348877641113452267FF3F
:100A9300FFFFFFFFFFFFFFFFFFFFFFDD66FFFFFF1E
:100AA300FF88CCFFFFFFFFFFFFFFFFFFFFFFFFFFFD
:100AB300FFFFFFFFFFFFFFFFFFFFFFFFFFFFFFFF43
:100AC300FFAC347788564577764324555537CDFEAA
:100AD300FFFFFFFFFFFFFFFFFFFFFFEE75FDFDFDC4
:100AE300FDA7EAFEFFFFFFFFFFFFFFFFFFFFFFFF83
:100AF300FFFFFFFFFFFFFFFFFFFFFFFFFFFFFBF80E
:100B0300FEFF69778877566655345667745040AB55
:100B1300FFFFFFFFFFFFFFFFFFFFFF740000000069
:100B23000000009AFFFFFFFFFFFFFFFFFFFFFFFF34
:100B3300FFFFFFFFFFFFFFFFFFFFFFFFFFFFBF02FF
:100B430030D2DB798877666555468651020335FFD7
:100B5300FFFFFFFFFFFFFFFFFFFFFFBF4FAFBFCF52
:100B6300BFAFAFFFFFFFFFFEFCFFFFFFFFFFFFFF76
:100B7300FFFFFFFFFFFFFFFFFFFFFFFFFFFFFF9BE6
:100B8300010120A59A88665556653113454454FEE4
:100B9300FFFFFFFFFFFFFFFFFFFFFFFFFFFFDC5133
:100BA300FFFFFFFFFFFFFF7257FFFFFFFFFFFFFF87
:100BB300FFFFFFFFFFFFFFFFFFFFFFFFFFFFFFDD64
:100BC30022331310859A655576431245665547EFD0
:100BD300FFFFFFFFFFFFFFFFFFFFFFFFFFFFCC450F
:100BE300FFFFFFFFFFFFE603EFFFFFFFFFFFFFFF37
:100BF300FFFFFFFFFFFFFFFFFFFFFFFFFFFFFFDB26
:100C03002144451332976766552245676867A49068
:100C1300BBFFFFFFFFFFFFFFC890A0A0A090AA5556
:100C2300E3F3F2F2FBF7009FFFFFFFFFFFFFFFFF7E
:100C3300FFFFFFFFFFFFFFFFFFFFFFFFFFFBD6529B
:100C430023555645235466664423667898510027F6
:100C5300FFFFFFFFFFFFFFFFBD0608080729DF6750
:100C63000605090743003CFDFFFFFFFFFFFFFFFFF2
:100C7300FFFFFFFFFFFFFFFFFFFFFFFED4334744EC
:100C83002255675644445566444467974113128777
:100C9300FFFFFFFFFFFFFFFFCC87A9A9A8BBFF77DB
:100CA30076A9FFB99F3EFF53D5FFFFFFFFFFFFFF6D
:100CB300FFFFFFFFFFFFFFFFFFFFFE820367884485
:100CC30022457778565545665545886412453467FD
:100CD300FFFFFFFFFFFFFFFFCC7799998950F7894B
:100CE3006799FF85F5F6F56200FFFFFFFFFFFFFF42
:100CF300FFFFFFFFFFFFFFFFFFFF941356767756BB
:100D03003355778978565565555676323466447827
:100D1300FFFFFFFFFFFFFFFFCC779999CB0500761D
:100D23008899FF25060706061CFFFFFFFFFFFFFF4D
:100D3300FFFFFFFFFFFFFFFFFFC9225667677777BC
:100D4300556679998867665566775423667746AC06
:100D5300FBFCFFFFFFFFFFFFCC77999998AABF78B1
:100D6300779AFF8BFCFCFFFFFFFFFFFFFFFFFFFFF7
:100D7300FFFFFFFFFFFFFFFFFF87357876774220F6
:100D8300202071B89B7867556677444467799870DB
:100D930011DFFFFFFFFFFFFFDB84A6A5A5B6FE75EE
:100DA3007291F2A07933FAFFFFFFFFFFFFFFFFFF0E
:100DB300FFFFFFFFFFFFFFFFFE65678866665704BF
:100DC3000012021082BA895566774455789741021A
:100DD30054FFFFFFFFFFFFFF790002020105EF460B
:100DE30004050A09CF5910FCFFFFFFFFFFFFFFFFB8
:100DF300FFFFFFFFFFFFFFFFDF557788666666781B
:100E0300351134241242A779667745669854124502
:100E130043EBFFFFFFFFFFFFEF9FEFEFDFFF90418C
:100E2300EFFFFFFFFFEF0520E5FFFFFFFFFFFFFFE2
:100E3300FFFFFFFFFFFFA4C0C36487896666766474
:100E430033223356453444866676566787333456A1
:100E53004585FFFFFFFFFFFFFFFFFFFFFFFF0803C6
:100E6300FFFFFFFFFFFFDF0C2DFFFFFFFFFFFFFF74
:100E7300FFFFFFFFFFFF9F02001242867766664473
:100E830045333355675656666666677766235577E7
:100E93006755DCFFFFFFFFFFF7F5F5F5F5F5F7C73E
:100EA300F5F5F5F5F5F5F6F6F4FFFFFFFFFFFFFFA8
:100EB300FFFFFFFFFFFFFF57113434557677664579
:100EC30057453355878967776766778866335678DA
:100ED3007866CDFFFFFFFFFF5901060606060203F2
:100EE300060606060606000208FFFFFFFFFFFFFFD8
:100EF300FFFFFFFFFFFFFF8922686866677667676A
:100F030077684554779899787766669977446688C1
:100F1300899AB383FFFFFFFF9866FFFFFFFF6575A5
:100F2300FFFFFFFFFEA005BCFFFFFFFFFFFFFFFF6B
:100F3300FFFFFFFFFFFFFFBC34889A79886777774D
:100F43008987434476889999887855878945658840
:100F5300AA850045FFFFFFFF8866FF62CAFF569719
:100F6300FDFAF6C0003EEF98FFFFFFFFFFFFFFFF14
:100F7300FFFFFFFFFFFFFFFF5965A9AB9A89668853
:100F8300985545567595B6B99B8A6765A96855887E
:100F9300A9432454EDFFFFFF8866FF45CCFF88007B
:100FA3000000050BAFFFCB88FFFFFFFFFFFFFFFF35
:100FB300FFFFFFFFFFFFFFFFEF5C77BABCBC798742
:100FC30089665530100000205093995775885698BC
:100FD30076335645CAFFFFFF8866FF55CCFF656B26
:100FE300DFFFFFFFFFFFCB88FFFFFFFFFFFFFFFFD9
:100FF300FFFFFFFFFFFFFFFDE3C26383B6EABD68A8
:1010030087776749243334241303528656657788D8
:101013006634665698FFFFFF8866FF55CCFF78302D
:101023006060606070FADF88FFFFFFFFFFFFFFFF74
:10103300FFFFFFFFFFFFFFEF5F0511252553959886
:101043007788789879344466574545556655758849
:101053006744667876FDFFFF8879C710EFFF86390E
:101063006F6F6F6F0676FF88FFFFFFFFFFFFFFFFC6
:10107300FFFFFFFFFFFFFFFFFFDF2765897967772B
:1010830088879989A9673355777967666667457550
:101093008856658868B8FFFF8886AF08FFFB10ABEA
:1010A300FFFEFCFB8267FF88FFFFFFFFFFFFFFFFE1
:1010B300FFFFFFFFFFFFFFFFFFFFCF5798AB9B89AA
:1010C300998987A9999A45426687AA8A7877674555
:1010D300647766779967DBFF8966FFFFFFDF06BAF0
:1010E300FFCD370500ABFF99FFFFFFFFFFFFFFFFBA
:1010F300FFFFFFFFFFFFFFFFFFFFFFAD66A9CABCB6
:101103009BAA9A78A8AA7A25437698A99A89887877
:1011130045647678889998FF751050505050403048
:10112300506070600030402060FFFFFFFFFFFFFF53
:10113300FFFFFFFFFFFFFFFFFFFFFFFFAF7A7470AB
:10114300C7CACABB8998BA8C37558799B8B8A8A8B3
:101153008A475486989989D98D2D8F7F7F7F7F7F8A
:101163007F7F7F7F8F7F7F7F9FFFFFFFFFFFFFFFDC
:10117300FFFFFFFFFFFFFFFFFFFFFFFFFEFF8E02EB
:101183002344546575769694856452412121213117
:10119300628577456497AA78DBFFFFFFFFFFFFFFB8
:1011A300FFFFFFFFFFFFFFFFFFFFFFFFFFFFFFFF4C
:1011B300FFFFFFFFFFFFFFFFFEF8B2716384A6345A
:1011C3003266686878785735453524344545464551
:1011D30045456677565486AAAAFFFFFFFFFFFFFF28
:1011E300FFFFFFFFFFFFFFFFFFFFFFFFFFFFFFFF0C
:1011F300FFFFFFFFFFFF8550401214556677886994
:1012030025427597999A9A57557777575465667714
:101213007868677777574585A9FFFFFFFFFFFFFFD3
:10122300FFFFFFFFFFFFFFFFFFFFFFFFFFFFFFFFCB
:10123300FFFFFFFFFFFFCF0310334455768788A9D5
:101243009A3834647698A99A5664878858335365D4
:1012530076989A8A7888684575FCFFFFFFFFFFFF41
:10126300FFFFFFFFFFFFFFFFFFFFFFFFFFFFFFFF8B
:10127300FFFFFFFFFFFFFFBF080031425364768784
:1012830098A98957677788989A5866769869144118
:10129300647688A9AB8A99794673FCFFFFFFFFFF49
:1012A300FFFFFFFFFFFFFFFFFFFFFFFFFFFFFFFF4B
:1012B300FFFFFFFFFFFFFDF4A44737363655657682
:1012C30076656576666666758697887878989A49AE
:1012D30025437487A9BAAAAA893584FDFFFFFFFFB6
:1012E300FFFFFFFFFFFFFFFFFFFFFFFFFFFFFFFF0B
:1012F300FFFFFFFFFFE52005577787866566676673
:10130300545465667778897A7A696776868889A975
:10131300984646557597A8A9AA893585FFFFFFFF0B
:10132300FFFFFFFFFFFFFFFFFFFFFFFFFFFFFFFFCA
:10133300FFFFFFFFB3002465767665566677643258
:1013430034466667788BA9A6948476777867769710
:10135300997877777868668698AA7833C8FFFFFF0D
:10136300FFFFFFFFFFFFFFFFFFFFFFFFFFFFFFFF8A
:10137300FFFFFFDA001146677766656678752124FB
:1013830055657789A9A441234556667788998A6864
:1013930086988988899989676697995753EBFFFFE0
:1013A300FFFFFFFFFFFFFFFFFFFFFFFFFFFFFFFF4A
:1013B300FFFFFF75001077888766566899320143EF
:1013C300446575965101345678899A9A9A9AAAABCC
:1013D3008A77989989999989676587784586FFFF00
:1013E300FFFFFFFFFFFFFFFFFFFFFFFFFFFFFFFF0A
:1013F300FFFFFF450000519767667898861110102C
:1014030023256C65001242648799AAABBABABABBAA
:10141300BC9B77989989999A896766886654EDFF8A
:10142300FFFFFFFFFFFFFFFFFFFFFFFFFFFFFFFFC9
:10143300FFFFFF7900110043787684568D12078FE2
:10144300CFEFFF5C5FBF9F5C587A968363536474EE
:1014530095C9AB78989A99BBAB8866777744CBFFED
:10146300FFFFFFFFFFFFFFFFFFFFFFFFFFFFFFFF89
:10147300FFFFFFDF14221233686E8FDFFFBFFEF61C
:10148300F5F9FFFFFFFFFFFFFFAA03135467686728
:101493005666989988AAABBBBB996766774499FF50
:1014A300FFFFFFFFFFFFFFFFFFFFFFFFFFFFFFFF49
:1014B300FFFFFFFFBF292577C6D2E2F7F8B0200070
:1014C300010040E3FDFFFFFEFCFDFFBF6D67989A3F
:1014D300797788998899BBBBBBAA7765774599FFCC
:1014E300FFFFFFFFFFFFFFFFFFFFFFFFFFFFFFFF09
:1014F300FFFFFFFFFFFF9410000202000000002324
:101503003434130020605020001070F8FFBD789928
:10151300AA89889A9999BBBBCCAB7755775588FF35
:10152300FFFFFFFFFFFFFFFFFFFFFFFFFFFFFFFFC8
:10153300FFFFFFFFFFD900022333332200001244D1
:10154300454534110000010223130110FEEF88AA60
:10155300AA9A99AA9A89BBCCCCBB7756775589DCD2
:10156300FCFEFFFFFFFFFFFFFFFFFFFFFFFFFFFF8C
:10157300FFFFFFFFFF61003344454534110123564C
:10158300665643110002244544442300A5FF9CA949
:10159300BBAAAABBA999BCCCCCBB77677756ABDDFA
:1015A300AB8570E6FFFFFFFFFFFFFFFFFFFFFFFFBE
:1015B300FFFCF8F690001244555656452211346745
:1015C30077663311123456565544320000C2FBBDC0
:1015D300BBBBBCBB99ABCCCCCCAA77776567CDDD65
:1015E300B9530000FCFFFFFFFFFFFFFFFFFFFFFBFF
:1015F3009010000000002144666767663422457836
:101603007755221234566666554310000000009148
:10161300DDCDCBA99ACCDCCCCC997776569BDDCBB0
:1016230085100112BBFFFFFFFFFFFFFFFFFFE91064
:1016330001122323130111446678887745336689A1
:10164300784423356777776543210001121302003D
:1016530095EDA99ABCDDCCCCBB8866558ADEDC97B8
:1016630032123545BCFFFFFFFFFFFFFFFFFF4200C4
:10167300223444454535233365889989664578AADC
:101683008744456888886643111224344434330000
:1016930033BB9ABCDDCCCCDCA765567BDEEDB854FE
:1016A30024466755CCFFFFFFFFFFFFFFFFEC000160
:1016B30034445567676757354487AAAB8A689CBD2E
:1016C3007856799A997643222446565655443300E0
:1016D30035BCBDDCCCCCC88555579CDEEBB7644626
:1016E30068888967B7FFFFFFFFFFFFFFFFBD00109B
:1016F30043556677888989795778BBDBBAAAB8B727
:1017030097BACDAB86443657677777665544320030
:1017130067EFDBCAB785555669ACDBC88445688972
:101723009A9A999967A5FAFFFFFFFFFFFFEE000062
:10173300214365778899AAACBDA8868898845232DC
:101743003243A5B969698A8988887765543210005C
:1017530040C8976555576A9BBAA6734346789AABB8
:10176300AAA99887864330EBFFFFFFFFFA800000AA
:10177300002142647698ABEEB7547774411112346A
:1017830044445486DCCEABA9887664422110000021
:101793000030847C8ECDCA95632224467899AAAA08
:1017A300A998766331100099FFFFFE8000020213AF
:1017B300132323344465A9EC6822412201113441E7
:1017C3003347686998ECCB976443221213131313BE
:1017D300020100C7FEA866453444546475868686B4
:1017E30086654423131304BEFFFF95002334444549
:1017F3005656576768698A859667233122124401D2
:101803001063859496A898574646464656564545CE
:1018130034220057ED997552312020213344566705
:101823006868685767558BFFFFFF4300334455666D
:10183300677888999ABDBB433242311123332133F0
:10184300010021102064BCAC9989787767676655DD
:10185300441100ADCD8A57351313143557799AAB1C
:10186300ABAB9A998755CDFFFFFF340033445565E1
:1018730076778898A9DBBB33110112113233222109
:10188300001212010245CAB99888877776666655B1
:10189300441200C9DD986542312031527496A8B9CB
:1018A300BABAA9987855DCFFFFFF6A003143435465
:1018B3005464657575869857253744222221330071
:1018C3001256363534698A656463646454545444E7
:1018D30043220075ED9967351403021323445576AB
:1018E300767575747554A7FFFFFFFF1C0210202047
:1018F3002131323345679AAD9B75211111013213A2
:101903002264879A9DCEBB7947352322212121204A
:101913002000009DEF8B67544343445667787979E1
:1019230068574432213020DBFFFFFFFFDF3B00001D
:10193300011234467899AAEDCD353445251311317A
:1019430032224387DBDBBAAA8977563513010000BD
:10195300000458A6C7DABC7B372332548799AAAB55
:10196300AA89684624020099FFFFFFFFFFED0000EC
:10197300234456778899A9B9D99A4957777959371A
:1019830036487D9B8685979888887766453401001D
:1019930015AD7A57556596B8BB8B49355486A9BAA8
:1019A300AAAA8979684405CFFFFFFFFFFFCB001187
:1019B30034556677888898866587CBCDAB99BCBC50
:1019C30099C9DBBB78455374767776665544230013
:1019D30076FDCDBC8C69566586C9CD9D59457598F4
:1019E300A9999998766CDFFFFFFFFFFFFFCE0010E8
:1019F30033445566767664434588AABA9776B9CA5E
:101A0300776486A999673422425465555544330057
:101A130043CBCBCDCCCCAC695665B7EDCE8B56540E
:101A2300868787658BFFFFFFFFFFFFFFFFFF250013
:101A3300213344545442213366889998655487A9C5
:101A43007844537687886735122131434343330003
:101A530034ABA9CADDCCCCCC8B575596ECDE9B4678
:101A630032647655CCFFFFFFFFFFFFFFFFFFBF048C
:101A730000203231201011446687887754336598EB
:101A830088452242657777663512001020211000C1
:101A93007ADE9BA9CADDCCCCBC886755A7ECCD8A7E
:101AA30024214243CBFFFFFFFFFFFFFFFFFFFFEFB9
:101AB3002C040000000022446676766533225477B6
:101AC3007755221143656666553401000000033BD8
:101AD300DDDBCCAA99CBCDCCCC99776765A9DDBCEE
:101AE30068120020BBFFFFFFFFFFFFFFFFFFFFFFA9
:101AF300FFFFCFAF2C002144556565542211436687
:101B0300766633112142546555442300015FEFDAB1
:101B1300BBBABBBB99AACCCCCCAA77776676CCDD13
:101B2300AB450002DFFFFFFFFFFFFFFFFFFFFFFFEC
:101B3300FFFFFFFFFF2700324444443310003255B8
:101B43006665341100103243444432007BFFA9AA76
:101B5300BAAAAABB9999CBCCCCBB77667765BADC1A
:101B6300AA590B9FFFFFFFFFFFFFFFFFFFFFFFFFD1
:101B7300FFFFFFFFFFAE001032333321000021448B
:101B8300545443100000002031300003FFFE88AAA4
:101B9300AA9998AA9998BBCCCCBB7765775598CE70
:101BA300DFFFFFFFFFFFFFFFFFFFFFFFFFFFFFFF62
:101BB300FFFFFFFFFFFE780300101000000000315D
:101BC300434320000509080604040ABFFFDA779996
:101BD300AA9888A99999BBBBCBBA7755775588FF43
:101BE300FFFFFFFFFFFFFFFFFFFFFFFFFFFFFFFF02
:101BF300FFFFFFFFF96242759C6F5FBFCF2F0500A8
:101C03000001087FFFFFFFFFFFFDFBF8A46689A823
:101C130097778799889ABBBBBBAA7766775499FF56
:101C2300FFFFFFFFFFFFFFFFFFFFFFFFFFFFFFFFC1
:101C3300FFFFFFEB3122203367B5E6FBFFF8FFAF71
:101C43009FDFFFFFFFFFFFFFFDAB1221447585758B
:101C530065668A9988AABABBBB99666677449AFF78
:101C6300FFFFFFFFFFFFFFFFFFFFFFFFFFFFFFFF81
:101C7300FFFFFF860010003587775856C71140F5E0
:101C8300F9FBFF95D2F8E69465878A4937374748C9
:101C93006AACB97789A999BAA98866777644BCFFF3
:101CA300FFFFFFFFFFFFFFFFFFFFFFFFFFFFFFFF41
:101CB300FFFFFF54000026897766778878120102B8
:101CC3001333A5650012245688999ABABBBBBBBBD4
:101CD300CBB87789998899A9987566886555DFFF88
:101CE300FFFFFFFFFFFFFFFFFFFFFFFFFFFFFFFF01
:101CF300FFFFFF58001176887866657699341034B3
:101D0300456567792600426586979898A8A9AABA77
:101D13009777899888999998765678874379FFFFBA
:101D2300FFFFFFFFFFFFFFFFFFFFFFFFFFFFFFFFC0
:101D3300FFFFFFBE00105476776666568667133240
:101D430054667697AA6B16234355667778989776E9
:101D530078998788989997656789986446CFFFFF34
:101D6300FFFFFFFFFFFFFFFFFFFFFFFFFFFFFFFF80
:101D7300FFFFFFFF5D00415677675665667757247F
:101D83003354657687A8AA7B5A586777867768891C
:101D9300987777868676677989AA8634ADFFFFFFC1
:101DA300FFFFFFFFFFFFFFFFFFFFFFFFFFFFFFFF40
:101DB300FFFFFFFFFF8F05407477897857657666CD
:101DC3005555566677879797968677677888999A51
:101DD3009864545567799A9AAA97436AFFFFFFFF5D
:101DE300FFFFFFFFFFFFFFFFFFFFFFFFFFFFFFFF00
:101DF300FFFFFFFFFFFFFF8F6B7262525355666752
:101E03006767676766666767698987777789A8728F
:101E1300323557799AAAAAAA975359EFFFFFFFFFC2
:101E2300FFFFFFFFFFFFFFFFFFFFFFFFFFFFFFFFBF
:101E3300FFFFFFFFFFFFFFF86001132435566878AB
:101E4300899A967576778899A87456789985222405
:101E5300566789AAB99898976448DFFFFFFFFFFF89
:101E6300FFFFFFFFFFFFFFFFFFFFFFFFFFFFFFFF7F
:101E7300FFFFFFFFFFFFF910013344557788989A5E
:101E8300A8623456788A9AA964567887743445567A
:101E93006899A9978787765458EFFFFFFFFFFFFFE5
:101EA300FFFFFFFFFFFFFFFFFFFFFFFFFFFFFFFF3F
:101EB300FFFFFFFFFFFF5A0908124053657687951E
:101EC300422567899999A97555777664455666764B
:101ED3008686767777644569AAFFFFFFFFFFFFFFDA
:101EE300FFFFFFFFFFFFFFFFFFFFFFFFFFFFFFFFFF
:101EF300FFFFFFFFFFFFFFFFFFBF4E29284B7C3291
:101F0300236676767686754354434142535353434F
:101F130043545676644579A9ABFFFFFFFFFFFFFFEC
:101F2300FFFFFFFFFFFFFFFFFFFFFFFFFFFFFFFFBE
:101F3300FFFFFFFFFFFFFFFFFFFFFFFFFFFED610C7
:101F4300233647485868796A7856362604040415B8
:101F5300376876545789A988BDFFFFFFFFFFFFFF4E
:101F6300FFFFFFFFFFFFFFFFFFFFFFFFFFFFFFFF7E
:101F7300FFFFFFFFFFFFFFFFFFFFFFFFE998482978
:101F83009DBCBBBA989ABAB7634588A9AA9A9A998D
:101F9300A76445689999988BFFFFFFFFFFFFFFFF39
:101FA300FFFFFFFFFFFFFFFFFFFFFFFFFFFFFFFF3E
:101FB300FFFFFFFFFFFFFFFFFFFFFFC9579ABBCAEA
:101FC300A9AAA8789AAA96423567899AA998888671
:101FD3005446778788988AEFFFFFFFFFFFFFFFFFD5
:101FE300FFFFFFFFFFFFFFFFFFFFFFFFFFFFFFFFFE
:101FF300FFFFFFFFFFFFFFFFFFFFEA7589BAA88816
:1020030098977899999954346688A99777777654ED
:10201300577765779877BEFFFFFFFFFFFFFFFFFF4F
:10202300FFFFFFFFFFFFFFFFFFFFFFFFFFFFFFFFBD
:10203300FFFFFFFFFFFFFFFFFFFB515697867577FB
:1020430088789988AA763356779776656676446852
:1020530088655688769BFFFFFFFFFFFFFFFFFFFFAB
:10206300FFFFFFFFFFFFFFFFFFFFFFFFFFFFFFFF7D
:10207300FFFFFFFFFFFFFFFDE220114233366B99A5
:1020830077888789974345656454535566556798A0
:102093007644668778EFFFFFFFFFFFFFFFFFFFFF39
:1020A300FFFFFFFFFFFFFFFFFFFFFFFFFFFFFFFF3D
:1020B300FFFFFFFFFFFFFFDF5F6E46498CCDDA773F
:1020C3008977768231324231302126686567778895
:1020D3006643666589FFFFFFFFFFFFFFFFFFFFFF0B
:1020E300FFFFFFFFFFFFFFFFFFFFFFFFFFFFFFFFFD
:1020F300FFFFFFFFFFFFFFFFFC9578BBBBCA87789D
:102103009865560402010204175AA8646888658911
:1021130078336554BCFFFFFFFFFFFFFFFFFFFFFFA7
:10212300FFFFFFFFFFFFFFFFFFFFFFFFFFFFFFFFBC
:10213300FFFFFFFFFFFFFFFE8557AAAAA997668847
:102143008956536466798AAAB89865569A765588EB
:102153009A344245EFFFFFFFFFFFFFFFFFFFFFFF43
:10216300FFFFFFFFFFFFFFFFFFFFFFFFFFFFFFFF7C
:10217300FFFFFFFFFFFFFFCA4388A98787767777B3
:1021830088793544678899988877558898546688FC
:10219300AA590053FFFFFFFFFFFFFFFFFFFFFFFFF2
:1021A300FFFFFFFFFFFFFFFFFFFFFFFFFFFFFFFF3C
:1021B300FFFFFFFFFFFFFF98227675657667667660
:1021C30077865345779998877766669876436688C6
:1021D30088A86C3BFFFFFFFFFFFFFFFFFFFFFFFF31
:1021E300FFFFFFFFFFFFFFFFFFFFFFFFFFFFFFFFFC
:1021F300FFFFFFFFFFFFFF641043435567766654FD
:10220300654323558898767776667788663366873D
:102213008765DBFFFFFFFFFFFFFFFFFFFFF9C080C5
:102223005040406090F3FCFFFFFFFFFFFFFFFFFF05
:10223300FFFFFFFFFFFFF610001225797766664464
:1022430044323356766565656666667766325476DC
:102253007655CDFFFFFFFFFFFFFFFFFF9000070B4A
:102263001D2E2E1D0A0500F6FFFFFFFFFFFFFFFFD8
:10227300FFFFFFFFFFFF5D4F6E5688986666764748
:10228300342134555342457966676576783343651F
:102293005369FFFFFFFFFFFFFFFFFF9507CFFFFF1F
:1022A300FFFFFFFFFFFF8F02E9FFFFFFFFFFFFFFBE
:1022B300FFFFFFFFFFFFFFFFED5577886666678629
:1022C3005212333121269A86667744659946214313
:1022D30034CEFFFFFFFFFFFFFFFFFF66C8FFFFFFD7
:1022E300FFFFFFFFFFFFFF5279FFFFFFFFFFFFFF2E
:1022F300FFFFFFFFFFFFFFFFFF566688666774302F
:10230300002010034ABA97556677435587892510ED
:1023130054FFFFFFFFFFFFFFFFFFFF9F00C0F7FB1F
:10232300FDFDFDFCFAF69005EFFFFFFFFFFFFFFF4A
:10233300FFFFFFFFFFFFFFFFFF784387677735044A
:102343000304389AB9877655667744437687981994
:1023530004FCFFFFFFFFFFFFFFFFFFFFAF0A0100CA
:102363001020200000030CFFFFFFFFFFFFFFFFFF14
:10237300FFFFFFFFFFFFFFFFFFAD22646666778667
:10238300646587998876655565774522657754C96D
:10239300EFDFFFFFFFFFFFFFFFFFFFC9F6FEFFCFEA
:1023A3008E7D7D9ECFFFFEB2A8FFFFFFFFFFFFFFE5
:1023B300FFFFFFFFFFFFFFFFFFFF5B216567775411
:1023C3003355779876655566556568234365447735
:1023D300FFFFFFFFFFFFFFFFFFFFFFBC0010101019
:1023E3002030302010101000BCFFFFFFFFFFFFFF65
:1023F300FFFFFFFFFFFFFFFFFFFFFF4A206588444A
:10240300225577875554556654448856115443676B
:10241300FFFFFFFFFFFFFFFFFFFFFF9A3B9F8F8F32
:102423008F8F8F8F8F8F8F26A8FFFFFFFFFFFFFFF9
:10243300FFFFFFFFFFFFFFFFFFFFFFFF7F26744349
:1024430022556665444455664443768925202078A1
:10245300FFFFFFFFFFFFFFFFFFFFFFEFFFFFFFFF99
:10246300FFFFFFFFFFFFFF7688FFFFFFFFFFFFFF79
:10247300FFFFFFFFFFFFFFFFFFFFFFFFFFEF8F37B1
:102483002254554432456766453266879926006073
:10249300FEFFFFFFFFFFFFFFFFFFFFFFFFFFFFFF4A
:1024A300FFFFFFFFFFFFFF5189FFFFFFFFFFFFFF5D
:1024B300FFFFFFFFFFFFFFFFFFFFFFFFFFFFFFCD5B
:1024C30012444421248966655622537676757A2D03
:1024D300BCFFFFFFFFFFFFFFFFFFFFFFFFFFFFFF4C
:1024E300FFFFFFFFFFF68000BCFFFFFFFFFFFFFFC3
:1024F300FFFFFFFFFFFFFFFFFFFFFFFFFFFFFFDC0C
:102503002232200269A9565566342154665564FE69
:10251300FFFFFFFFFFFFFFFFFFFFFFB9C4FAFAFA58
:10252300FAFAFAFAFA898B54A9FFFFFFFFFFFFFFBC
:10253300FFFFFFFFFFFFFFFFFFFFFFFFFFFFFFB7F0
:102543000000057AA988665565661421544345EF52
:10255300FFFFFFFFFFFFFFFFFFFFFFBB00000000C8
:102563000000000000000000CBFFFFFFFFFFFFFFA4
:10257300FFFFFFFFFFFFFFFFFFFFFFFFFFFFFA006C
:10258300076FDD968877665655647726112041FEDE
:10259300FFFFFFFFFFFFFFFFFFFFFFA96BCFCFCFC2
:1025A300BF6ABFCFCFCFCF3798FFFFFFFFFFFFFF3C
:1025B300FFFFFFFFFFFFFFFFFFFFFFFFFFFFCFCF88
:1025C300FFFE75778877556656436576572708ABC0
:1025D300FFFFFFFFFFFFFFFFFFFFFFA9AAFFFFFFB3
:1025E300FD93FDFFFFFFFF6688FFFFFFFFFFFFFF78
:1025F300FFFFFFFFFFFFFFFFFFFFFFFFFFFFFFFFE8
:10260300FFB9437787655477773431545562EAFFCE
:10261300FFFFFFFFFFFFFFFFFFFFFF9960FEFF7557
:1026230011030175FFFFFF3089FFFFFFFFFFFFFF6E
:10263300FFFFFFFFFFFFFFFFFFFFFFFFFFFFFFFFA7
:10264300FF7632667643348877561220432176FF2D
:10265300FFFFFFFFFFFFFFFFFFFFFFCF0610D8EFD6
:10266300EFFFEFEFFFF56004BEFFFFFFFFFFFFFF8C
:10267300FFFFFFFFFFFFFFFFFFFFFFFFFFFFFFFF67
:10268300FF7821655521448876664603101053FF71
:10269300FFFFFFFFFFFFFFFFFFFFFFD9F9DFDFFEB4
:1026A300FEFEFEFEFE8FAFA6B8FFFFFFFFFFFFFF9C
:1026B300FFFFFFFFFFFFFFFFFFFFFFFFFFFFFFFF27
:1026C300FFBC12544211567766777766250203CC16
:1026D300FFFFFFFFFFFFFFFFFFFFFFAC00303020D6
:1026E3002020202020403000ACFFFFFFFFFFFFFF32
:1026F300FFFFFFFFFFFFFFFFFFFFFFFFFFFFFFFFE7
:10270300FFCC10200217746665657666552274FF48
:10271300FFFFFFFFFFFFFFFFFFFFFFA92A7F7F7F71
:102723007F7F7F7F7F7F7F15A8FFFFFFFFFFFFFF77
:10273300FFFFFFFFFFFFFFFFFFFFFFFFFFFFFFFFA6
:10274300FFB60005AFEF235354546566563400CAF1
:10275300FFFFFFFFFFFFFFFFFFFFFF8AA4FFFFFF56
:10276300FFFFFFFFFFFFFF508BFFFFFFFFFFFFFF99
:10277300FFFFFFFFFFFFFFFFFFFFFFFFFFFFFFFF66
:10278300FF9F8FFFFFFF5A0042424151622000AA80
:10279300FFFFFFFFFFFFFFFFFFFFFFEF00A0FAFFB9
:1027A300FFFFFFFFFEF98004FFFFFFFFFFFFFFFFB7
:1027B300FFFFFFFFFFFFFFFFFFFFFFFFFFFFFFFF26
:1027C300FFFFFFFFFFFFFF2C00100000000004CFFE
:1027D300FFFFFFFFFFFFFFFFFFFFFFFFAF0600301D
:1027E30060707060300007DFFFFFFFFFFFFFFFFF38
:1027F300FFFFFFFFFFFFFFFFFFFFFFFFFFFFFFFFE6
:10280300FFFFFFFFFFFFFFFF8F0B0706083EDFFF02
:10281300FFFFFFFFFFFFFFFFFFFFFFFFFFFF8F3EF6
:102823000C0B0B0C4FAFFFFFFFFFFFFFFFFFFFFF83
:10283300FFFFFFFFFFFFFFFFFFFFFFFFFFFFFFFFA5
:10284300FFFFFFFFFFFFFFFFFFFFFFFFFFFFFFFF95
:10285300FFFFFFFFFFFFFFFFFFFFFFFFFFFFFFFF85
:09286300FFFFFFFFFFFFFFFFFF75
:10497A009000807420F0124D71E4FF1251707BFF99
:10498A007A00796C90008574FFF0E4FD1245547F3B
:10499A00E87E031252E3E4FF1251707BFF7A087932
:1049AA006C90008574FFF07D011245547FE87E0308
:1049BA001252E3E4FF12517090008674FFF0A37460
:1049CA0000F0A37403F07B01E4FDFCFFFE1242E455
:1049DA0090008674FFF0A37400F0A37411F07B02B8
:1049EA007D0A7C00E4FFFE1242E490008674FFF028
:1049FA00A37400F0A3741FF07B037D147C00E4FF12
:104A0A00FE1242E490008674FFF0A37400F0A374CF
:104A1A002EF07B047D247C00E4FFFE1242E47FE852
:104A2A007E031252E3E4FF12517090008674FFF085
:104A3A00A37400F0A3743DF07B05E4FDFCFFFE12B5
:104A4A0042E490008674FFF0A37400F0A3744DF062
:104A5A007B067D1E7C00E4FFFE1242E47FE87E03B3
:104A6A001252E3E4FF12517090008674FFF0A374AF
:104A7A0000F0A3745DF07B01E4FDFCFFFE12333409
:104A8A0090008674FFF0A37400F0A3745DF07B02BB
:104A9A007D0E7C00E4FFFE12333490008674FFF032
:104AAA00A37400F0A3745DF07B037D227C00E4FF15
:104ABA00FE1233347FE87E031252E3E4FF12517090
:104ACA0090008674FFF0A37400F0A3745DF07B0479
:104ADA007D147C00E4FFFE1233347FE87E03125219
:094AEA00E3E4FF12517002498857
:014AF30022A0
:10286C00000000000000000000000000000000005C
:10287C00000000F8000000000000003330000000F1
:10288C0000100C06100C06000000000000000000F8
:10289C0040C07840C0784000043F04043F0404006A
:1028AC00007088FC08300000001820FF211E00007A
:1028BC00F008F000E018000000211C031E211E008F
:1028CC0000F00888700000001E2123241927211015
:1028DC0010160E00000000000000000000000000B8
:1028EC00000000E01804020000000007182040005F
:1028FC0000020418E000000000402018070000004F
:10290C00404080F0804040000202010F01020200B2
:10291C00000000F0000000000101011F0101010096
:10292C00000000000000000080B0700000000000FB
:10293C000000000000000000000101010101010184
:10294C00000000000000000000303000000000001B
:10295C0000000000806018040060180601000000F0
:10296C0000E010080810E000000F102020100F00ED
:10297C00001010F8000000000020203F2020000074
:10298C0000700808088870000030282422213000CC
:10299C0000300888884830000018202020110E00D4
:1029AC000000C02010F8000000070424243F24007D
:1029BC0000F80888880808000019212020110E0052
:1029CC0000E0108888180000000F112020110E0064
:1029DC0000380808C83808000000003F000000005C
:1029EC000070880808887000001C222121221C001D
:1029FC0000E010080810E0000000312222110F0046
:102A0C00000000C0C00000000000003030000000DA
:102A1C00000000800000000000008060000000004A
:102A2C000000804020100800000102040810200063
:102A3C0040404040404040000404040404040400AE
:102A4C000008102040800000002010080402010043
:102A5C00007048080808F000000000303601000043
:102A6C00C030C828E810E0000718272423140B00F6
:102A7C000000C038E0000000203C23020227382070
:102A8C0008F8888888700000203F202020110E0054
:102A9C00C03008080808380007182020201008004B
:102AAC0008F808080810E000203F202020100F0034
:102ABC0008F88888E8081000203F20202320180000
:102ACC0008F88888E8081000203F20000300000068
:102ADC00C03008080838000007182020221E020009
:102AEC0008F808000008F808203F210101213F20C8
:102AFC00000808F8080800000020203F20200000F3
:102B0C0000000808F8080800C08080807F000000E2
:102B1C0008F888C028180800203F2001263820001B
:102B2C0008F8080000000000203F20202020300082
:102B3C0008F8F800F8F80800203F003F003F20009C
:102B4C0008F830C00008F808203F200007183F00A4
:102B5C00E01008080810E0000F10202020100F00D3
:102B6C0008F808080808F000203F210101010000C6
:102B7C00E01008080810E0000F18242438504F000B
:102B8C0008F8888888887000203F2000030C3020CB
:102B9C0000708808080838000038202121221C0009
:102BAC00180808F8080818000000203F2000000052
:102BBC0008F808000008F808001F202020201F003B
:102BCC000878880000C83808000007380E0100009B
:102BDC00F80800F80008F800033C0700073C030065
:102BEC00081868808068180820302C03032C3020CB
:102BFC000838C800C83808000000203F200000003A
:102C0C0010080808C8380800203826212020180091
:102C1C00000000FE020202000000007F4040400065
:102C2C00000C30C000000000000000010638C0009D
:102C3C0000020202FE000000004040407F00000045
:102C4C00000004020202040000000000000000006A
:102C5C000000000000000000808080808080808068
:102C6C000002020400000000000000000000000050
:102C7C0000008080808000000019242222223F2046
:102C8C0008F8008080000000003F112020110E0089
:102C9C000000008080800000000E11202020110018
:102CAC00000000808088F800000E112020103F20CA
:102CBC000000808080800000001F2222222213004E
:102CCC00008080F0888888180020203F2020000099
:102CDC000000808080808000006B9494949360004E
:102CEC0008F8008080800000203F210000203F2059
:102CFC0000809898000000000020203F2020000059
:102D0C00000000809898000000C08080807F000048
:102D1C0008F8000080808000203F24022D30200025
:102D2C00000808F8000000000020203F20200000D0
:102D3C008080808080808000203F20003F20003FEA
:102D4C008080008080800000203F210000203F20F8
:102D5C000000808080800000001F202020201F00A9
:102D6C00808000808000000080FFA12020110E00D8
:102D7C000000008080808000000E112020A0FF80C9
:102D8C00808080008080800020203F212000010076
:102D9C0000008080808080000033242424241900CB
:102DAC00008080E0808000000000001F20200000D8
:102DBC008080000000808000001F202020103F2019
:102DCC00808080000080808000010E3008060100A9
:102DDC0080800080008080800F300C030C300F004E
:102DEC0000808000808080000020312E0E31200079
:102DFC00808080000080808080818E7018060100A9
:102E0C0000808080808080000021302C22213000C6
:102E1C0000000000807C020200000000003F4040E7
:102E2C0000000000FF00000000000000FF00000098
:102E3C000002027C800000000040403F00000000C7
:102E4C000006010102020404000000000000000062
:102E5C000000F010101010FF10101010F000000007
:102E6C0000000F04040404FF040404040F00000019
:102E7C004040405F555555755555555F4040400095
:102E8C000040200F094989790909090F20400000E9
:102E9C0000FE02424ACA4A4ACA4A4A4202FE00009C
:102EAC0000FF40504C4340404F50505C40FF0000EE
:102EBC000000F888888888FF88888888F8000000D7
:102ECC0000001F080808087F888888889F80F00009
:102EDC0080828282828282E2A2928A8682808000B2
:102EEC00000000000040807F000000000000000097
:102EFC00000000C080808080808080FC8480808086
:102F0C00808080C0C0000000000000FF7F40404077
:102F1C00404040FF40404040404040FF7F000000A8
:102F2C0000000000000000000000007F70000000A6
:102F3C000000000000000000000000000000FCA8E1
:102F4C00A8A8A8A8A8A8A8A8A8FCFC000000000095
:102F5C00000404040404F5F41414141516161414C3
:102F6C0014F51404040400000000202010180907B4
:102F7C00052161617F01010105090818302000005D
:102F8C00000000FC08080808484848484848282819
:102F9C0008080808FC040000000000FF00000404FE
:102FAC00847C040404FC040402820000FF00000082
:102FBC000000007F202824222120202020232624EA
:102FCC00242623207F00000000000000C040404069
:102FDC00404040FC444040404040C04000000000A5
:102FEC0000000000FF080808080808FF0808080887
:102FFC000808FF00000000000000000003010101B0
:10300C000101013F61414141414141406C300000AF
:10301C0000000000080808080808088808884848C4
:10302C0028181C08000000000008080808080808F8
:10303C00080808FFFF080808080808080C0C080016
:10304C0000000000000000002020607F3F00000016
:10305C000000000000000000000000000000000064
:10306C0000000000000000FCF80000000000000060
:10307C00000000000000000000000000FFFE020243
:10308C0002020202020202FFFF020202020202021A
:10309C000202FF0300000000000000001F1F0404D8
:1030AC0004040404040404FFFF04040404040404DE
:1030BC0004041F00000000000000000000000000DD
:1030CC00000000000000007F3F0000000000000036
:1030DC0000000000000000000000000000000000E4
:1030EC0000000000000000000000000000000000D4
:1030FC00F8F090909090909090909090909090F894
:10310C00F80000000000000000004040404040403B
:10311C004F4744444444444C7C7444444444C44F5A
:10312C0047406060604000000000000000000000AC
:10313C007F3FA22222222222E222222222227F3F2F
:10314C00030000000000000000002010100808041C
:10315C0006030311102060703F0000000101010202
:10316C00060C1C38300000000000000000000000BD
:10317C00000000000000000000000000F8F8080843
:10318C00088888888888888888888888C8880808F3
:10319C000808F8FC0800000000000000FFFF2020D9
:1031AC0020202120E0E0202020E0E02020203030F2
:1031BC002040FFFF0000000000000000FFFF0000A7
:1031CC000080C0781F00000000FFFF80008080D8C6
:1031DC00E080FFFF00000000000000007F3F14149F
:1031EC0012111010101010101010111111111111CA
:1031FC0011107F3F000000000000000000000000E4
:10320C0000000000000000000000000000000000B2
:10321C00000000000000FCFC0800000000000000A2
:10322C0000000000000000000000000000FFFF8113
:10323C00818181818181FFFF818181818181818176
:10324C00FFFF0000000000000000000000FFFF2056
:10325C00202020202020FFFF2020202020202020A4
:10326C007F3F000000000000000000000000000094
:10327C000000000000001F3F3020202020202020D4
:10328C00202020393E10000000000000000000004B
:10329C000000000000000000000000000000101002
:1032AC001010101010101010101010101090D07072
:1032BC003838300000000000000080808080808062
:1032CC0080808080808080FCFC8C828381808080E8
:1032DC008080C0E0C0800000000000000000000002
:1032EC0000000000000000FFFF00000000000000D4
:1032FC0000000000000000000000000000000000C2
:10330C00000010101030703F1F0000000000000083
:10331C0000000000000000000000000000000000A1
:08332C00000000000000000099
:0852E300900081EEF0A3EFF052
:1052EB00900081E0FEA3E04E6025A37407F0A304B9
:1052FB00F090008374FFF5F012489F45F070F29028
:0F530B000082E024FFF0900081E034FFF080D1B9
:01531A002270
:085222009000B1EFF0A3EDF0E4
:10522A00E06004D2938002C293C294E49000B3F087
:10523A009000B3E0C39408748094805021C2909087
:10524A0000B1E030E704D2918002C291D29090007E
:10525A00B1E0FF25E0F09000B3E004F080D2D294F0
:02526A00D293DD
:01526C00221F
:1053D80090008FEFF0A3EDF0E4FD7F1512522290BC
:1053E800008FE0241CFF0D125222900090E0241C34
:0553F800FF1252222209
:1053820090008FEFF0A3EDF0E4FD7FA01252220D0A
:105392007F15125222E41D7F7512522290008FE077
:0E53A200FF0D125222900090E0FF12522222C4
:05517000900081EFF04A
:105175007D3FE4FF1253D87D3FE4FF125382E4FDE7
:105185007F5C125222E4900083F0900083E0C39488
:105195004074809480502CE4900082F0900082E06E
:1051A500C39480748094805012900081E0FF7D014B
:1051B500125222900082E004F080E1900083E00426
:0351C500F080C7B0
:0151C80022C4
:0B404A009000CCEFF0A3EDF0A3EBF032
:10405500E49000D8F0A3F09000CFE0FF13131354C1
:104065001F9000DAF09000CEE024E09000D0F0E45C
:10407500A3F09000DAE0FF9000D1E0C39F40030277
:1040850042E39000CCE0FF1313543FFF9000CFE0D4
:10409500FE131313541FFE9000CCE0FD1313543F81
:1040A5002E14FD1253D89000D1E075F008A4FF90AE
:1040B50000CDE02FFF9000D1E075F008A4FE900040
:1040C500CDE02E2407FD125382E4FD7F5C125222BF
:1040D500E49000D2F09000DAE0FF9000D2E0C39FB8
:1040E50040030242DA9000CFE0641060030241FE13
:1040F500E0FF9000D1E08FF0A4FFE5F0C313FCEFE3
:1041050013FDA3E075F004A42DFFE5F03CFE90003F
:10411500D0E075F010A4246CF582E5F03428F58321
:10412500E5822FF582E5833EF583E4939000D4F094
:104135009000CFE0FF9000D1E08FF0A4FFE5F0C341
:1041450013FCEF13FDA3E075F004A42DFFE5F03C8F
:10415500FE9000D0E075F010A4246DF582E5F034F2
:1041650028F583E5822FF582E5833EF583E4939078
:1041750000D5F09000CFE0FF9000D1E08FF0A4FFD4
:10418500E5F0C313FCEF13FDA3E075F004A42DFFC8
:10419500E5F03CFE9000D0E075F010A4246EF582A9
:1041A500E5F03428F583E5822FF582E5833EF58336
:1041B500E4939000D6F09000CFE0FF9000D1E08F1F
:1041C500F0A4FFE5F0C313FCEF13FDA3E075F004C5
:1041D500A42DFFE5F03CFE9000D0E075F010A4247E
:1041E5006FF582E5F03428F583E5822FF582E583C6
:1041F5003EF583E4939000D7F0E49000D3F090006F
:10420500D3E0C394087480948040030242D1E0FF58
:104215007E007401A807088005C333CE33CED8F9D4
:10422500FF9000D4E0FDE4EF5D60069000D874F0E7
:10423500F09000D3E0FF7E007401A807088005C355
:1042450033CE33CED8F9FF9000D5E0FDE4EF5D60C5
:10425500079000D8E0440FF09000D8E0FF7D0112F0
:104265005222E49000D8F09000D3E0FF7E00740164
:10427500A807088005C333CE33CED8F9FF9000D602
:10428500E0FDE4EF5D60069000D974F0F09000D396
:10429500E0FF7E007401A807088005C333CE33CE46
:1042A500D8F9FF9000D7E0FDE4EF5D60079000D9F5
:1042B500E0440FF09000D9E0FF7D01125222E49016
:1042C50000D9F09000D3E004F00242039000D2E060
:0E42D50004F00240DA9000D1E004F0024077DD
:0142E30022B8
:1051C9009000FCEFF0A3EDF0A3EBF0A3EAF0A3E964
:1051D900F09000FEE0FBA3E0FAA3E0F91247BA6001
:1051E900379000FCE0FFA3E0FDA3E0A3E0A3E012F9
:1051F90047BAFB900101E09000CFF012404A9000BD
:10520900FFE475F001124889900101E0FFC313FF23
:095219009000FCE02FF080B922A6
:08526D00900102EFF0A3EDF047
:10527500A3E4F0A304F0900103E0FF14F0EF601A3B
:10528500A3E0FEA3E0FF900102E0FD7C00124822AE
:10529500900104EEF0A3EFF080DC900104E0FEA3A2
:0252A500E0FF28
:0152A70022E4
:0E5044009000F3EFF0A3EDF0A3EAF0A3EBF081
:10505200E49000FBF09000F9F09000F7E0FF900080
:10506200F9E0C39F400302510FE0FF9000F7E0C355
:105072009F14FD7F0A12526D9000F5E0FCA3E0FD43
:10508200CFCDCFCECCCE1248347C007D0A1248342C
:105092009000FAEDF0A3E070409000F7E014FF906A
:1050A20000F9E0C39F5032A3E070289000F8E0FFBF
:1050B200C313FFA3E0FEEF8EF0A4FF9000F3E02FF6
:1050C200FFA3E0FD9000F8E09000CFF07B201240BB
:1050D2004A80319000FB7401F09000F8E0FFC313A6
:1050E200FFA3E0FEEF8EF0A4FF9000F3E02FFFA3FA
:1050F200E0FD9000FAE02430FB9000F8E09000CF51
:0D510200F012404A9000F9E004F002505B0A
:01510F00227D
:0B3C0D009000DBEFF0A3EDF0A3EBF064
:103C1800E49000E6F0A3F09000DFF09000DEE0FF13
:103C2800131313541FFFA3E0C39F4003024049909E
:103C380000DBE0FF1313543FFF9000DEE0FE131398
:103C4800543FFE9000DBE0FD1313543F2E14FD1289
:103C580053D89000DFE075F008A4FF9000DCE02F57
:103C6800FF9000DFE075F008A4FE9000DCE02E2451
:103C780007FD125382E4FD7F5C125222E49000E0BB
:103C8800F09000DEE0FF1313543FFF9000E0E0C324
:103C98009F40030240409000DEE064106003023D54
:103CA80079E0FFA3E08FF0A4FFA3E025E025E02F53
:103CB800FF9000DDE0C43354E0245CF582E4342E48
:103CC800F583E5822FF582E43583F583E49390004C
:103CD800E2F09000DEE0FFA3E08FF0A4FFA3E02570
:103CE800E025E02FFF9000DDE0C43354E0245DF5CB
:103CF80082E4342EF583E5822FF582E43583F5835B
:103D0800E4939000E3F09000DEE0FFA3E08FF0A4DE
:103D1800FFA3E025E025E02FFF9000DDE0C4335449
:103D2800E0245EF582E4342EF583E5822FF582E403
:103D38003583F583E4939000E4F09000DEE0FFA380
:103D4800E08FF0A4FFA3E025E025E02FFF9000DD41
:103D5800E0C43354E0245FF582E4342EF583E58231
:103D68002FF582E43583F583E4939000E5F0023F74
:103D7800649000DEE064186003023E70E0FFA3E098
:103D88008FF0A4FDACF0A3E075F004A42DFFE5F0DE
:103D98003CFE9000DDE075F048A424FCF582E5F0D7
:103DA800342EF583E5822FF582E5833EF583E4938F
:103DB8009000E2F09000DEE0FFA3E08FF0A4FDACFD
:103DC800F0A3E075F004A42DFFE5F03CFE9000DDC3
:103DD800E075F048A424FDF582E5F0342EF583E57E
:103DE800822FF582E5833EF583E4939000E3F0901B
:103DF80000DEE0FFA3E08FF0A4FDACF0A3E075F0D7
:103E080004A42DFFE5F03CFE9000DDE075F048A429
:103E180024FEF582E5F0342EF583E5822FF582E560
:103E2800833EF583E4939000E4F09000DEE0FFA386
:103E3800E08FF0A4FDACF0A3E075F004A42DFFE53D
:103E4800F03CFE9000DDE075F048A424FFF582E523
:103E5800F0342EF583E5822FF582E5833EF583E481
:103E6800939000E5F0023F649000DEE06420600378
:103E7800023F64E0FFA3E08FF0A4FDACF0A3E0757F
:103E8800F004A42DFFE5F03CFE9000DDE075F09015
:103E9800A42464F582E5F03430F583E5822FF582B9
:103EA800E5833EF583E4939000E2F09000DEE0FFC6
:103EB800A3E08FF0A4FDACF0A3E075F004A42DFFFF
:103EC800E5F03CFE9000DDE075F090A42465F582F5
:103ED800E5F03430F583E5822FF582E5833EF583FE
:103EE800E4939000E3F09000DEE0FFA3E08FF0A4FD
:103EF800FDACF0A3E075F004A42DFFE5F03CFE90C6
:103F080000DDE075F090A42466F582E5F03430F524
:103F180083E5822FF582E5833EF583E4939000E400
:103F2800F09000DEE0FFA3E08FF0A4FDACF0A3E08A
:103F380075F004A42DFFE5F03CFE9000DDE075F07F
:103F480090A42467F582E5F03430F583E5822FF5F7
:103F580082E5833EF583E4939000E5F0E49000E188
:103F6800F09000E1E0C3940874809480400302401C
:103F780037E0FF7E007401A807088005C333CE33FD
:103F8800CED8F9FF9000E2E0FDE4EF5D6006900016
:103F9800E674F0F09000E1E0FF7E007401A80708E5
:103FA8008005C333CE33CED8F9FF9000E3E0FDE4BB
:103FB800EF5D60079000E6E0440FF09000E6E0FF58
:103FC8007D01125222E49000E6F09000E1E0FF7ECD
:103FD800007401A807088005C333CE33CED8F9FF93
:103FE8009000E4E0FDE4EF5D60069000E774F0F017
:103FF8009000E1E0FF7E007401A807088005C33344
:10400800CE33CED8F9FF9000E5E0FDE4EF5D600720
:104018009000E7E0440FF09000E7E0FF7D011252C6
:1040280022E49000E7F09000E1E004F0023F69909C
:1040380000E0E004F0023C899000DFE004F0023C7C
:014048002354
:014049002254
:0E455400900081EBF0A3EAF0A3E9F0A3EDF0F4
:10456200E06003024712900088F0900088E0C39454
:10457200087480948040030247B97D40E4FF1253DF
:10458200D8900088E075F008A4FFE075F008A42434
:1045920007FD125382E4FD7F5C125222E4900087F1
:1045A200F0900087E0C394407480948040030247F7
:1045B20009900081E0FBA3E475F00112489FA9F085
:1045C200FA1247BA900089F0900081E0FBA3E475EB
:1045D200F00112489FA9F0FA1247BA90008AF090AF
:1045E2000081E0FBA3E475F00112489FA9F0FA12E2
:1045F20047BA90008BF0900081E0FBA3E475F001D4
:1046020012489FA9F0FA1247BA90008CF0E4900089
:1046120086F0900086E0C394087480948040030280
:104622004700E0FF7E007401A807088005C333CE6F
:1046320033CED8F9FF900089E0FDE4EF5D600C9085
:104642000085E0FFC454F090008DF0900086E0FFFA
:104652007E007401A807088005C333CE33CED8F993
:10466200FF90008AE0FDE4EF5D601090008DE0FFB6
:10467200900085E0FEEF4E90008DF090008DE0FFFF
:104682007D01125222E490008DF0900086E0FF7EC0
:10469200007401A807088005C333CE33CED8F9FFD2
:1046A20090008BE0FDE4EF5D600C900085E0FFC4BC
:1046B20054F090008EF0900086E0FF7E007401A816
:1046C20007088005C333CE33CED8F9FF90008CE0C3
:1046D200FDE4EF5D601090008EE0FF900085E0FE4B
:1046E200EF4E90008EF090008EE0FF7D011252227C
:1046F200E490008EF0900086E004F00246149000F0
:1047020087E004F00245A3900088E004F002456CC3
:10471200E4900088F0900088E0C394407480948014
:1047220040030247B9E0FF2402FD1253D87D3FE463
:10473200FF125382E4FD7F5C125222E4900087F064
:10474200900087E0C39440748094805061A3E07528
:10475200F080A4FF900081E0FBA3E0FAA3E02FF930
:10476200EA35F0FA900087E07E0029F9EE3AFA1273
:1047720047BAFF7D01125222900088E075F080A4B2
:10478200FF900081E0FBA3E0FAA3E02FF9EA35F005
:10479200FA900087E07E0029F9EE3AFA9000401282
:1047A20047D3FF125222900087E004F080929000DB
:0747B20088E004F002471744
:0147B90022DD
:104D7100C2927F647E001252E3D292E4FD7FFD1263
:104D810052220D7F12125222E41D7FAE125222E4F2
:104D91007FB31252220D7F91125222E41D7FCA125B
:104DA10052220D7F3F125222E41D7FA21252220D88
:104DB100E4FF125222E41D7FA11252220DE4FF12E0
:104DC1005222E41D7FA01252220D7F15125222E4BD
:104DD1001D7FB51252220DE4FF125222E41D7FAB5A
:104DE1001252220D7F01125222E41D7FB41252226F
:104DF1000D7FA01252227FFD125222E41D7FC112AB
:104E010052220D7FFF125222E41D7FC71252220D42
:104E11007F0F125222E41D7FB9125222E47FB11298
:104E210052220D7FE2125222E41D7FD11252220D35
:104E31007F821252227F20125222E41D7FBB125226
:104E4100220D7F1F125222E41D7FB61252220D7FC6
:104E510008125222E41D7FBE1252220D7F07125208
:0F4E610022E41D7FA6125222E47FAF12522222BA
:1053B0009000A4EFF0A3EDF0E4FD7F1512522290CF
:1053C00000A4E0241CFF7D011252229000A5E024DD
:0853D0001CFF7D011252222294
:105350009000A4EFF0A3EDF0E4FD7FA01252227DB7
:10536000017F14125222E4FD7F751252229000A494
:10537000E0FF7D011252229000A5E0FF7D01125254
:025380002222E7
:05531B009000A0EFF07E
:10532000E4A3F09000A1E0C3940874809480501F1F
:105330009000A0E030E704D2918002C2919000A0DA
:0F534000E0FF25E0F0C290D290A3E004F080D40B
:01534F00223B
:1052A800E49000A1F09000A0F09000A0E0C3940862
:1052B80074809480501FC290A3E0FF25E0F03095E1
:1052C80005E004F080059000A1E0F0D2909000A0E5
:0A52D800E004F080D49000A1E0FF94
:0152E20022A9
:0B511000900098EFF0A3EDF0A3EBF08F
:10511B00C2867F0312531B900098E0FF12531B9023
:10512B000099E0FF12531B90009AE0FF12531BE40F
:10513B0090009FF090009EE0FFA3E0C39F502312CE
:10514B0052A890009BE0FBA3E0FAA3E0F990009F2C
:10515B00E0F582758300EF12480090009FE004F0A9
:04516B0080D2D28696
:01516F00221D
:10333400900081EEF0A3EFF0A3ECF0A3EDF0A3EB8B
:01334400F098
:10334500E4900089F090008D124923000000009060
:10335500009112492300000000E4900095F0A3F0CD
:10336500900085E0124954337C0133920233A8035F
:1033750033BE04000033D2900091124923000000AF
:10338500009000957418F0A3740CF08040900091A3
:103395001249230002C9D09000957420F0A374103F
:1033A500F0802A90009112492300068190900095A3
:1033B5007448F0A37418F08014900091124923000A
:1033C5000EDF009000957480F0A37420F0900086C5
:1033D500E0FBA3E0FAA3E0F9A3E0F5827583001210
:1033E50047D3D394007480948050030237A690008D
:1033F50096E0FFE49FFF74019400FE900081E0FCDD
:10340500A3E0D39FEC9E4019900096E0FF900084C6
:10341500E02FF0900083E03400F0E4900081F0A309
:10342500F0900086E0FBA3E0FAA3E0F9A3E0F582C3
:103435007583001247D3C394A1748094805003020E
:1034450035E3900086E0A3E0A3E0A3E0F582758371
:10345500001247D3D394A97480948040030235E3C6
:10346500900089E02401FFE433FE900086E0A3E0AC
:10347500A3E08F828E831247D3C394A17480948076
:1034850050030235E3900086E0A3E0A3E0A3E0F556
:10349500827583001247D3245FFFE434FFFE7C006E
:1034A5007D5E124822EE3395E0FDFC90008D1249B9
:1034B5001790008DE0FCA3E0FDA3E0FEA3E0FFC0B4
:1034C50006C007900089E02401FFE433FE900086E2
:1034D500E0FBA3E0FAA3E0F98F828E831247D324A1
:1034E5005FFFE434FFFEAB07FA3395E0F9F8D00748
:1034F500D006EF2BFFEE3AFEED39FDEC38FC9000DF
:103505008D124917900095E0FFE4FCFDFE90008DBB
:10351500E0F8A3E0F9A3E0FAA3E0FB1248B59000B8
:1035250091E0F8A3E0F9A3E0FAA3E02FFFEE3AFE5D
:10353500ED39FDEC38FC90008D12491790008DE0B7
:10354500FCA3E0FDA3E0FEA3E0E4FFFEEDE4FC78D0
:103555001012490490008AEFF090008DE0FCA3E082
:10356500FDA3E0FEA3E0E4FFEEE4FDFC78081249CC
:103575000490008BEFF090008DE0FCA3E0FDA3E04C
:10358500FEA3E0FFE490008CEFF090008AE0FFA33B
:10359500E0FDA3E0FB90009B7401F0A37400F0A391
:1035A5007400F0900095E090009EF012511090008C
:1035B50081E0FEA3E0FFA3E0FCA3E0FDA3E0FB1296
:1035C5004F62900096E0FF900082E02FF09000811E
:1035D500E03400F0900089E02402F00233D290003C
:1035E50086E0FBA3E0FAA3E0F9A3E0F5827583008A
:1035F5001247D3C394B07480948050030233D290A1
:103605000086E0A3E0A3E0A3E0F5827583001247FE
:10361500D3D394F77480948040030233D290008909
:10362500E02401FFE433FE900086E0A3E0A3E08FF1
:10363500828E831247D3C394A17480948050030271
:1036450033D2900086E0A3E0A3E0A3E0F582758382
:10365500001247D32450FFE434FFFE7C007D5E1248
:103665004822EE3395E0FDFC90008D12491790003D
:103675008DE0FCA3E0FDA3E0FEA3E0FFC006C007CC
:10368500900089E02401FFE433FE900086E0FBA36F
:10369500E0FAA3E0F98F828E831247D3245FFFE41B
:1036A50034FFFEEF244EFFEE3403FEAB07FAE4F9D8
:1036B500F8D007D006EF2BFFEE3AFEE93DFDE83CDA
:1036C500FC90008D124917900095E0FFE4FCFDFE8B
:1036D50090008DE0F8A3E0F9A3E0FAA3E0FB12481F
:1036E500B5900091E0F8A3E0F9A3E0FAA3E02FFF7D
:1036F500EE3AFEED39FDEC38FC90008D124917903D
:10370500008DE0FCA3E0FDA3E0FEA3E0E4FFFEEDF9
:10371500E4FC781012490490008AEFF090008DE0E7
:10372500FCA3E0FDA3E0FEA3E0E4FFEEE4FDFC78EE
:103735000812490490008BEFF090008DE0FCA3E0A7
:10374500FDA3E0FEA3E0FFE490008CEFF090008A7B
:10375500E0FFA3E0FDA3E0FB90009B7401F0A374E0
:1037650000F0A37400F0900095E090009EF01251D7
:1037750010900081E0FEA3E0FFA3E0FCA3E0FDA321
:10378500E0FB124F62900096E0FF900082E02FF080
:10379500900081E03400F0900089E02402F00233CB
:0137A500D251
:0137A6002200
:104F6200900097EEF0A3EFF0A3ECF0A3EDF0A3EB2B
:014F7200F04E
:104F7300900097E0FEA3E07802CEC313CE13D8F9D6
:104F8300FF9000A0EEF0A3EFF090009BE0124954D5
:104F93004FA3014FB3024FC3034FD30400004FE1AC
:104FA30090009D7403F0A3740BF0A37418F0802E8B
:104FB30090009D7403F0A3740FF0A37420F0801E7F
:104FC30090009D7405F0A37417F0A37448F0800E4D
:104FD30090009D7407F0A3741FF0A37480F09000F9
:104FE300A0E0A3E0FF9000A0E0A3E0FE90009DE01E
:104FF300FDEE2DFD1253B0900099E0A3E0FF900069
:1050030099E0A3E0FE90009EE0FDEE2DFD125350CB
:10501300E4FD7F5C125222E490009CF090009FE03C
:10502300FF90009CE0C39F5017E02400F582E43416
:1050330000F583E0FF124C4D90009CE004F080DC0F
:01504300224A
:1037A7009000B4EEF0A3EFF0A3ECF0A3EDF0A3EBE1
:0137B700F021
:1037B800E49000BCF09000C2124923000000009081
:1037C80000C612492300000000E49000CAF0A3F0EC
:1037D8009000B8E012495437F201380802381E0345
:1037E800383404384A050000385E9000C612492370
:1037F800001DBE0C9000CA740CF0A37408F080562B
:103808009000C6124923001DD7909000CA7410F08A
:10381800A37408F080409000C6124923001F288036
:103828009000CA7410F0A37408F0802A9000C612A1
:103838004923001DFF309000CA7430F0A3740CF0C7
:1038480080149000C6124923001E5A909000CA7432
:1038580040F0A37410F09000B9E0FBA3E0FAA3E0F5
:10386800F9A3E0F5827583001247D3D394007480DE
:1038780094805003023C0C9000CBE0FFE49FFF745F
:10388800019400FE9000B4E0FCA3E0D39FEC9E40BE
:10389800199000CBE0FF9000B7E02FF09000B6E061
:1038A8003400F0E49000B4F0A3F09000B9E0FBA37A
:1038B800E0FAA3E0F9A3E0F5827583001247D34448
:1038C80080FF74AA9000BDF0A3EFF09000BDE0FE69
:1038D800A3E0C394A1EE94AA50030239E59000BD79
:1038E800E0A3E0D394FEEE94AA40030239E59000E9
:1038F800BDE0A3E0245FFFEE3455FEE4FCFD90003C
:10390800C21249179000CAE0FFE4FCFDFE9000C215
:10391800E0F8A3E0F9A3E0FAA3E0FB1248B59000B1
:10392800C6E0F8A3E0F9A3E0FAA3E02FFFEE3AFE21
:10393800ED39FDEC38FC9000C21249179000C2E046
:10394800FCA3E0FDA3E0FEA3E0E4FFFEEDE4FC78C9
:10395800101249049000BFEFF09000C2E0FCA3E011
:10396800FDA3E0FEA3E0E4FFEEE4FDFC78081249C5
:10397800049000C0EFF09000C2E0FCA3E0FDA3E0DB
:10398800FEA3E0FFE49000C1EFF09000BFE0FFA3CA
:10399800E0FDA3E0FB90009B7401F0A37400F0A38A
:1039A8007400F09000CAE090009EF0125110900050
:1039B800B4E0FEA3E0FFA3E0FCA3E0FDA3E0FB125C
:1039C8004E709000BCE004F09000CBE0FF9000B592
:1039D800E02FF09000B4E03400F002385E9000BDB3
:1039E800E0FEA3E0C394A1EE94AB5003023AF79033
:1039F80000BDE0A3E0D394C0EE94AB4003023AF7D5
:103A08009000BDE0A3E024BEFFEE3454FEE4FCFDCC
:103A18009000C21249179000CAE0FFE4FCFDFE9036
:103A280000C2E0F8A3E0F9A3E0FAA3E0FB1248B56E
:103A38009000C6E0F8A3E0F9A3E0FAA3E02FFFEEB8
:103A48003AFEED39FDEC38FC9000C212491790009F
:103A5800C2E0FCA3E0FDA3E0FEA3E0E4FFFEEDE48A
:103A6800FC78101249049000BFEFF09000C2E0FC0F
:103A7800A3E0FDA3E0FEA3E0E4FFEEE4FDFC78088C
:103A88001249049000C0EFF09000C2E0FCA3E0FDF2
:103A9800A3E0FEA3E0FFE49000C1EFF09000BFE0D8
:103AA800FFA3E0FDA3E0FB90009B7401F0A374006A
:103AB800F0A37400F09000CAE090009EF01251103C
:103AC8009000B4E0FEA3E0FFA3E0FCA3E0FDA3E0C8
:103AD800FB124E709000BCE004F09000CBE0FF9029
:103AE80000B5E02FF09000B4E03400F002385E90AA
:103AF80000BDE0FEA3E0C394A1EE94AC50030238ED
:103B08005E9000BDE0A3E0D394DFEE94AC400302E6
:103B1800385E9000BDE0A3E0245FFFEE3453FEE47E
:103B2800FCFD9000C21249179000CAE0FFE4FCFDBA
:103B3800FE9000C2E0F8A3E0F9A3E0FAA3E0FB12CC
:103B480048B59000C6E0F8A3E0F9A3E0FAA3E02F97
:103B5800FFEE3AFEED39FDEC38FC9000C212491731
:103B68009000C2E0FCA3E0FDA3E0FEA3E0E4FFFEBA
:103B7800EDE4FC78101249049000BFEFF09000C209
:103B8800E0FCA3E0FDA3E0FEA3E0E4FFEEE4FDFC1F
:103B980078081249049000C0EFF09000C2E0FCA33E
:103BA800E0FDA3E0FEA3E0FFE49000C1EFF0900089
:103BB800BFE0FFA3E0FDA3E0FB90009B7401F0A32E
:103BC8007400F0A37400F09000CAE090009EF01218
:103BD80051109000B8E0FF7E009000B4E0FCA3E034
:103BE800FDA3E0A3E0FB124E709000BCE004F0904F
:103BF80000CBE0FF9000B5E02FF09000B4E0340077
:043C0800F002385E30
:013C0C002295
:104E70009000E8EEF0A3EFF0A3ECF0A3EDF0A3EBCD
:014E8000F041
:104E81009000E8E0FEA3E07802CEC313CE13D8F978
:104E9100FF9000F1EEF0A3EFF09000ECE012495426
:104EA1004EB4014EC3024ED2034EE1044EF1050051
:104EB100004EFF9000EE7401F0A3740BF0A304F018
:104EC100803C9000EE7401F0A3740FF0A304F08015
:104ED1002D9000EE7401F0A3740FF0A304F0801E76
:104EE1009000EE7403F0A37417F0A37430F0800EF9
:104EF1009000EE7403F0A3741FF0A37440F09000CF
:104F0100F1E0A3E0FF9000F1E0A3E0FE9000EEE00D
:104F1100FDEE2DFD1253B09000EAE0A3E0FF9000FA
:104F2100EAE0A3E0FE9000EFE0FDEE2DFD1253500C
:104F3100E4FD7F5C125222E49000EDF09000F0E07D
:104F4100FF9000EDE0C39F5017E02400F582E434A8
:104F510000F583E0FF124C4D9000EDE004F080DCA1
:014F6100222D
:1042E400900081EEF0A3EFF0A3ECF0A3EDF0A3EBCC
:0142F400F0D9
:1042F500E4900089F090008D1249230000000090A1
:10430500009112492300000000E4900095F0A3F00D
:10431500A3F0900085E0124954433401434A024317
:104325006003437A0443940543AE06000043C690F8
:104335000091124923001DDF809000957408F0A3B9
:10434500F0A3F0807C900091124923001DE280903B
:1043550000957408F0A3F0A3F080669000911249CF
:1043650023001DBE00900095740CF0A37408F0A303
:10437500740CF0804C900091124923001DD7809059
:1043850000957410F0A37408F0A37410F0803290B7
:104395000091124923001DFF009000957430F0A391
:1043A500740CF0A37418F080189000911249230042
:1043B5001E5A509000957440F0A37410F0A3742019
:1043C500F0900086E0FBA3E0FAA3E0F9A3E0F58214
:1043D5007583001247D3D3940074809480500302F0
:1043E5004553900096E0FFE49FFF74019400FE9012
:1043F5000081E0FCA3E0D39FEC9E4019900097E07C
:10440500FF900084E02FF0900083E03400F0E4900A
:104415000081F0A3F0900086E0FBA3E0FAA3E0F9A9
:10442500A3E0F5827583001247D3C394207480946A
:1044350080408E900086E0A3E0A3E0A3E0F58275BE
:1044450083001247D3D3947E748094804003024343
:10445500C6900086E0A3E0A3E0A3E0F582758300A3
:104465001247D324E0FFE434FFFE3395E0FDFC90D2
:10447500008D124917900095E0FFE4FCFDFE9000C9
:104485008DE0F8A3E0F9A3E0FAA3E0FB1248B590AC
:104495000091E0F8A3E0F9A3E0FAA3E02FFFEE3ADC
:1044A500FEED39FDEC38FC90008D12491790008D1A
:1044B500E0FCA3E0FDA3E0FEA3E0E4FFFEEDE4FCE9
:1044C500781012490490008AEFF090008DE0FCA36B
:1044D500E0FDA3E0FEA3E0E4FFEEE4FDFC780812B6
:1044E500490490008BEFF090008DE0FCA3E0FDA364
:1044F500E0FEA3E0FFE490008CEFF090008AE0FF7F
:10450500A3E0FDA3E0FB90009B7401F0A37400F011
:10451500A37400F0900095E090009EF01251109069
:104525000081E0FEA3E0FFA3E0FCA3E0FDA3E0FB28
:10453500124AF4900089E004F0900096E0FF9000A4
:0E45450082E02FF0900081E03400F00243C6C7
:014553002245
:104AF400900098EEF0A3EFF0A3ECF0A3EDF0A3EB9D
:014B0400F0C0
:104B0500900098E0FEA3E07802CEC313CE13D8F947
:104B1500FF9000A2EEF0A3EFF090009CE012495444
:104B25004B3B014B4D024B60034B73044B86054BCE
:104B35009A0600004BAC90009E7401F0A37407F038
:104B4500A304F0E4A3F0805F90009E7401F0A374C9
:104B550007F0A304F0A37401F0804C90009E74014B
:104B6500F0A3740BF0A304F0A37401F08039900056
:104B75009E7401F0A3740FF0A304F0A37401F080F8
:104B85002690009E7403F0A37417F0A37430F0A36D
:104B95007401F0801290009E7403F0A3741FF0A3BB
:104BA5007440F0A37401F09000A2E0A3E0FF900030
:104BB500A2E0A3E0FE90009EE0FDEE2DFD1253B0B5
:104BC50090009AE0A3E0FF90009AE0A3E0FE900039
:104BD5009FE0FDEE2DFD125350E4FD7F5C12522245
:104BE5009000A1E0703890009DF09000A0E014FFC7
:104BF50090009DE0C39F5017E02400F582E4340047
:104C0500F583E0FF124C4D90009DE004F080DB7DC4
:104C150001E4FF1252227D01E4FF12522222E490A8
:104C2500009DF09000A0E0FF90009DE0C39F50170D
:104C3500E02400F582E43400F583E0FF124C4D904A
:074C4500009DE004F080DC9B
:014C4C002245
:054C4D009000A4EFF04F
:104C5200E09000AEF0E49000ADF09000ADE0C394BF
:104C620002748094804003024D70A3E054C0A3F00C
:104C7200E01249544C86004C97404CA9804CBBC072
:104C820000004CCB9000ADE024A5F582E43400F5A1
:104C920083E4F080349000ADE024A5F582E4340092
:104CA200F583740FF080229000ADE024A5F582E434
:104CB2003400F58374F0F080109000ADE024A5F587
:104CC20082E43400F58374FFF09000AEE0FF25E04B
:104CD20025E0F0E054C09000B0F0E01249544CF0EE
:104CE200004D01404D13804D25C000004D35900010
:104CF200ADE024A9F582E43400F583E4F080349039
:104D020000ADE024A9F582E43400F583740FF0804D
:104D1200229000ADE024A9F582E43400F58374F01A
:104D2200F080109000ADE024A9F582E43400F58310
:104D320074FFF09000AEE0FF25E025E0F09000ADBA
:104D4200E024A5F582E43400F583E0FF7D011252F0
:104D5200229000ADE024A9F582E43400F583E0FF5F
:0E4D62007D011252229000ADE004F0024C5C84
:014D70002220
:1047BA00BB010689828A83E0225002E722BBFE02FD
:0947CA00E32289828A83E4932230
:1047D300BB010CE58229F582E5833AF583E022509B
:1047E30006E92582F8E622BBFE06E92582F8E222E5
:0D47F300E58229F582E5833AF583E49322FF
:10480000F8BB010DE58229F582E5833AF583E8F0EE
:10481000225006E92582C8F622BBFE05E92582C89A
:02482000F22282
:10482200EF8DF0A4A8F0CF8CF0A428CE8DF0A42EAA
:02483200FE2264
:10483400BC000BBE0029EF8DF084FFADF022E4CC68
:10484400F875F008EF2FFFEE33FEEC33FCEE9DEC31
:10485400984005FCEE9DFE0FD5F0E9E4CEFD22ED77
:10486400F8F5F0EE8420D21CFEADF075F008EF2FC1
:10487400FFED33FD4007985006D5F0F222C398FDB2
:054884000FD5F0EA224F
:10488900C5F0F8A3E028F0C5F0F8E58215827002BA
:064899001583E038F02257
:10489F00A3F8E0C5F025F0F0E582158270021583CC
:0648AF00E0C838F0E82229
:1048B500E88FF0A4CC8BF0A42CFCE98EF0A42CFCA2
:1048C5008AF0EDA42CFCEA8EF0A4CDA8F08BF0A420
:1048D5002DCC3825F0FDE98FF0A42CCD35F0FCEB7F
:1048E5008EF0A4FEA9F0EB8FF0A4CFC5F02ECD3944
:0F48F500FEE43CFCEAA42DCE35F0FDE43CFC22B1
:10490400E8600FECC313FCED13FDEE13FEEF13FF91
:03491400D8F122B5
:0C491700ECF0A3EDF0A3EEF0A3EFF02213
:10492300A8828583F0D083D08212493A12493A1281
:10493300493A12493AE473E493A3C583C5F0C583A6
:10494300C8C582C8F0A3C583C5F0C583C8C582C8DE
:014953002241
:10495400D083D082F8E4937012740193700DA3A3F2
:1049640093F8740193F5828883E473740293686006
:06497400EFA3A3A380DF06
:00000001FF
